:10000000080B0020B90D00008F2A0000E90D000048
:10001000E90D0000E90D0000E90D000000000000FE
:10002000000000000000000000000000290C00009B
:10003000E90D000000000000E10B0000692A00004B
:10004000790D0000790D0000790D0000790D000098
:10005000790D0000790D0000790D0000790D000088
:10006000790D0000790D0000790D0000790D000078
:10007000790D0000790D0000790D0000790D000068
:10008000790D0000790D0000790D0000790D000058
:10009000790D0000790D0000790D0000790D000048
:1000A000790D0000790D0000790D0000790D000038
:1000B000790D0000790D0000790D0000790D000028
:1000C000790D0000790D0000790D0000790D000018
:1000D000790D0000790D0000790D0000790D000008
:1000E000790D0000790D0000790D0000790D0000F8
:1000F000790D0000790D0000790D0000790D0000E8
:1001000053B94AB9002908BF00281CBF4FF0FF317E
:100110004FF0FF3000F06EB9ADF1080C6DE904CE80
:1001200000F006F8DDF804E0DDE9022304B07047D2
:100130002DE9F047089D0E4604468C46002B40F002
:1001400081808A42174645D9B2FA82F24AB1C2F199
:10015000200106FA02F320FA01F1974041EA030C6C
:1001600094404FEA174E230CBCFBFEF6B9B20EFBCF
:1001700016CC43EA0C4306FB01F0984209D9FB1860
:1001800006F1FF3C80F01581984240F21281023E58
:100190003B441B1AA4B2B3FBFEF00EFB103344EA3F
:1001A000034400FB01F1A14209D93C1900F1FF33DE
:1001B00080F00181A14240F2FE8002383C44641A82
:1001C00040EA064000211DB1D4400023C5E90043A8
:1001D000BDE8F08702B9FFDEB2FA82F2002A4FD101
:1001E000CB1B4FEA174E1FFA87F80121B3FBFEFC29
:1001F000260C0EFB1C3346EA034608FB0CF3B34205
:1002000007D9BE190CF1FF3002D2B34200F2EB80E5
:100210008446F61AA3B2B6FBFEF00EFB106643EA64
:10022000064408FB00F8A04507D93C1900F1FF334C
:1002300002D2A04500F2D2801846A4EB080440EA9E
:100240000C40C0E78B4208D9002D00F0AF800021A0
:10025000C5E900060846BDE8F087B3FA83F1002936
:1002600049D1B34202D3824200F2BB80841A66EBCA
:10027000030301209C46002DAAD0C5E9004CA7E746
:10028000C2F120039740D8409140DE404FEA174E1C
:1002900008434FEA104CB6FBFEF11FFA87F80EFB3D
:1002A00011664CEA064601FB08F3B34204FA02F475
:1002B00009D9BE1901F1FF3C80F08E80B34240F2B3
:1002C0008B8002393E44F31A86B2B3FBFEF00EFB7C
:1002D000103346EA034600FB08F3B34207D9BE19C0
:1002E00000F1FF3C74D2B34272D902383E44F31A93
:1002F00040EA01417AE7C1F1200703FA01F422FA4A
:1003000007F31C4320FA07F906FA01F34FEA144CED
:10031000FE4049EA03094FEA1943B6FBFCFE1FFA07
:1003200084F80CFB1E6643EA06460EFB08FAB2454B
:1003300002FA01F200FA01F308D9A6190EF1FF3012
:1003400048D2B24546D9AEF1020E2644A6EB0A06C3
:100350001FFA89F9B6FBFCF00CFB106649EA064669
:1003600000FB08F8B04507D9A61900F1FF3C2DD2D3
:10037000B0452BD90238264440EA0E40A6EB0806C9
:10038000A0FB02894E45C446CE4618D315D075B39E
:10039000B3EB0C0266EB0E0606FA07F722FA01F33E
:1003A000CE401F43C5E90076002111E729462846C3
:1003B0000EE76646EDE6184601E74345E7D2B8EB9F
:1003C000020C69EB04040138A646E0E76046D3E777
:1003D00060468CE78646B9E7614674E702383C44DC
:1003E0002BE7084647E7ACF1020C3E4411E72946EB
:1003F000EEE600BF704700BF2DE9F0411F4801F055
:10040000F1FB0746C0B31D4801F0ECFB064698B36C
:100410001A4801F0E7FB054670B30D21384602F09B
:1004200089F9002828DB0E21304602F083F90028E4
:1004300022DB0F21284602F07DF900281CDBDFF8C3
:1004400040800124404602F095F922460D213846AD
:1004500002F060F922460E21304602F05BF9224696
:100460000F21284602F056F984F0010400214FF4D0
:10047000004001F06DFFE5E7BDE8F081803200004B
:10048000873200000B6801330B60014B1B68184773
:10049000000000202DE9F04F85B09B460E9CDFF850
:1004A0009090012CB8BF0124012B0CBF30232023D6
:1004B000154606468A46029301274FF00A08002295
:1004C000B5FBF9F301930AB9A9451FD8019B514621
:1004D00003F13000B04701370122019B08F1FF38DA
:1004E000B8F1010F09FB13554FF00A03B9FBF3F9FB
:1004F000E6D1514605F13000B047BBF1030F02D100
:10050000E41B002C0EDC05B0BDE8F08F4445E4DBB5
:10051000BBF1020FE1D8029803925146B047013770
:10052000039ADAE751462020B047013CE9E700BFD3
:1005300000CA9A3B014B1860704700BF00000020C2
:100540002DE9F04F8DB01C460027531E05468B4603
:1005500003934FF0FF39B846002605E06EB9252811
:1005600000F071815946A847039B13F8010F0393CC
:100570000028F3D10DB0BDE8F08F7A280AD86228A0
:1005800010D8302854D045D8252800F05A812D287D
:1005900000F05F8159462520A847039B18785946EB
:1005A000A847D9E7A0F16303172BF3D801A252F8AB
:1005B00023F000BF3B0800007F0600009505000007
:1005C0009505000095050000610600007F0600000B
:1005D00095050000950500006106000095050000E6
:1005E0009505000095050000210700009505000015
:1005F000950500000B08000095050000EF060000BF
:1006000095050000950500001D06000095050000F9
:100610006106000039281AD95828BBD1039B1B78E2
:10062000702B40F0888054F8043B0693002290E041
:10063000B9F1000F0EDAB8F1000F00F00D81A0F152
:100640003009B8F1000F08BF4FF002088CE7B9F18C
:10065000000FF4DB0A2303FB0909A9F13009F0E7D5
:10066000682803D1682F06D148277DE76C2802D17E
:100670006C2F00F0F480002F8CD1074674E77A2F9E
:1006800002D154F8046B21E06C2FFAD04C2FF8D132
:10069000073424F00704F4E80223CDE90423049B83
:1006A00013F10041059B089143F100010991DDE937
:1006B000082300214FF0FF30994208BF904204D236
:1006C0005946284602F048F846E7049E002E05DA0F
:1006D00059462D20A847764209F1FF39CDF8009000
:1006E0004346324659462846FFF7D4FE34E77A2F70
:1006F00002D154F8042B0FE06C2FFAD04C2FF8D114
:10070000073424F00704F4E8022300214FF0FF30FF
:10071000994208BF9042D3D3CDF800904346E1E719
:1007200059463020A84759467820A8474FF0080975
:100730004FF0010872E76C2F3FF475AF4C2F7FF438
:1007400072AFE31D23F007031C4654F8082B0692F2
:100750005A6800211023049107914FF0400AAAF132
:10076000040A0699CAF1200EAAF1200C21FA0AF017
:1007700002FA0EFE40EA0E0022FA0CFC40EA0C00DF
:1007800010F00F0007D1079911B9BAF1000F25D168
:100790004FF0300C05E009288CBF4FF0570C4FF09C
:1007A000300C6044594640B20A920793A847049B14
:1007B0000A9A01330493079BBAF1000F23D1B8F1D1
:1007C000030F7FF4C9AE049BC3EB4906002E7FF7ED
:1007D000C3AE59462020A847013EF7E7591E994568
:1007E0000A9107DBB8F1010F06D10B925946302070
:1007F000A8470B9A0A9BB2E7B8F1020FFAD10B9205
:1008000059462020F4E70796A9E754F8046BB2464E
:1008100053461AF8010B68B9B8F1030F21D19E1B9A
:10082000A9EB0606002E7FF797AE59462020A84771
:10083000013EF7E75946A847EAE754F8040B594642
:10084000AEE65946ACE63746B0464FF0FF390126D2
:100850008AE64FF0030887E64FF0010884E64C274C
:1008600082E6064680E600BF07B50B460021024639
:100870000191034801A9FFF763FE03B05DF804FB93
:100880008504000010B50748074C01F0ABF9074B91
:100890001860204600F066FC2046FFF74BFE002063
:1008A00010BD00BF8F320000B1080000C000002062
:1008B0000A2838B5074D044604D1286883680D21FD
:1008C0005B68984728688368E1B25B689847204670
:1008D00038BD00BFC0000020F8B5124EF3680C24EC
:1008E00004FB00340123054663724FF02003EFF34D
:1008F000118183F31188BFF36F8F23682BB1606878
:100900001A682260834208BF626081F31188BFF3D6
:100910006F8F03B9F8BDD3E9017229463046B84755
:10092000E3E700BF2C000020154B07B51A6882B121
:100930004FF08042D2F80423D1070AD500221A6072
:100940001B680093009B0F4BDB68587A08B9FFF7D0
:10095000C3FF0D4B1A6882B14FF08042D2F80423D6
:1009600092070AD500221A601B680193019B01209F
:1009700003B05DF804EBFFF7AFBF03B05DF804FB15
:10098000000100402C00002004010040821C084BA4
:1009900022F07F42C3F84025D3F80425904200D1CD
:1009A0007047D3F80405821C22F07F42F2E700BFB3
:1009B00000100140044B002282B01A601B680193B2
:1009C000019B02B0704700BF4011014008B5FFF71E
:1009D000F1FF074B074AD3F840051368C01A20F00F
:1009E0007F4003441360BDE8084001F013BE00BF20
:1009F00000100140DC00002038B5144801F0F2F886
:100A000000B38368124D1B68012100249847C5F884
:100A10000845FFF7CFFF0F4B4FF40032C3F880219A
:100A20004FF48033C5F8043322460121112000F031
:100A30001BF9112000F008F9074A01231360204632
:100A40002B6038BD4FF0FF30FBE700BF963200004F
:100A50000010014000E100E00810014070B52A4B91
:100A60002A4C1968D4F80425294D521AB0F1FF3FD9
:100A700008BF284622F07F43120234D4013820EA0E
:100A8000E070A842A8BF284601334FF480361844CE
:100A9000C4F80863A84294BF0D184D19D4F8040592
:100AA000D4F84015FFF786FF091A21F07F4120F0A6
:100AB0007F430129C4F84035C4F8446304D10F20B2
:100AC00002F037FAFFF776FF124B4FF40032C3F80B
:100AD0008021D4F804052B1A23F07F43012B04D185
:100AE000FFF754FF0BE00020CEE725F07F43C4F86A
:100AF0004035D4F804052D1A023D2B02F0D44FF4F2
:100B00008033C4F8043370BDDC00002000100140C5
:100B1000FFFF7F0000E100E04FF02002EFF31183C0
:100B200082F31188BFF36F8F064AD2F80405064A94
:100B30001268801A20F07F4083F31188BFF36F8F13
:100B4000704700BF00100140DC00002010B5114CC0
:100B5000114AA2610323C4E90433104BE361226606
:100B60004FF480630E4A0F4923626266002310220D
:100B7000E01DA3626362E3622367E3666367A266C4
:100B800001F08CFF0849204601F088FF2023A37163
:100B900010BD00BFE0000020A632000004030020CA
:100BA000F4020020AF320000B3320000094A0A49C3
:100BB0009368096819670949D8664B6843F0805300
:100BC0004B60002383F31188BFF36F8F9368186F16
:100BD000704700BFB40200207432000000ED00E056
:100BE0000F498A684FF030001044EFF3098C80E819
:100BF000F01F202080F31188BFF36F8F094F4FF053
:100C000000664A6A8A603E60D06E0023D36680F335
:100C1000118802F1300090E8F01F8CF309887047CA
:100C2000B402002004ED00E01EF0040F0CBFEFF34F
:100C30000880EFF30980816911F8021C0229FFD0B6
:100C400001B501F020FF01BD43B2002B08DB0122FA
:100C500000F01F0002FA00F05B09024A42F823008C
:100C6000704700BF00E100E043B2002BA8BF03F1D2
:100C7000604301F10101B8BF064B4FEA4111ACBF1F
:100C800003F5614300F00F00C9B2B4BF195483F8F3
:100C90000013704714ED00E0C0E918120A44203A2E
:100CA00022F0070208491360009B5360019B936088
:100CB000029BD3604FF08073D36121F001010023C8
:100CC00091610265C36670478F270000F8B506463C
:100CD0000C4617461D4600F099F9094B3C4424F098
:100CE00007049E60284684F30988002163B681F3D7
:100CF0001188BFF36F8F0022002301F048FD00BF71
:100D0000B4020020014910220A60704710ED00E093
:100D100072B6404080F31188BFF36F8FBFF34F8FDF
:100D200030BF62B6BFF36F8F704700BF30BFFFF7B1
:100D3000FDBF00BF0E4A08B50E4B22F07F029A603D
:100D4000BFF34F8FBFF36F8FD3F8882022F4700268
:100D5000C3F88820EFF3148323F0040383F314888B
:100D600000F07EFF00F086FF00F01EF900F0C0FFEB
:100D70000000000000ED00E001B572B60B4A106AF9
:100D800000281EBF0021116202F055F862B6EFF391
:100D90000580A0F110004FEAC0000549014409C9CF
:100DA0009847BDE80140034908470000B40200200D
:100DB000303000008D0F000001F0D7FE202080F3BE
:100DC000118808484FF40061401880F30988EFF358
:100DD00014800221084380F31488BFF36F8FFFF75C
:100DE000A9FF0000480C0020EFF30880EFF3098111
:100DF000724601B500F04EF801BD00BF0C4B9A6A77
:100E00009A6A9A6A920708D55A6B9A6A120604D5AA
:100E100018B19A6A22F080029A62054B9A6A9A6A1D
:100E20009A6A9A6A002042F0FF029A62087070473C
:100E300000ED00E00D4B9A6A9A6A9A6A920508D50D
:100E40009A6B9A6A120404D518B19A6A22F4004285
:100E50009A62064B9A6A9A6AD20558BF9A6A9A6A47
:100E6000002042F47F429A620870704700ED00E073
:100E7000074B9A6A9A6A9A6A9A6A9A6A9A6A9A6A04
:100E80006FEA02426FEA12429A620020704700BF86
:100E900000ED00E070B5364B5B688AB00E46C3F3D8
:100EA0000803002585F31188BFF36F8F02F07F419F
:100EB000B1F17F4F11D102F00C0108290DD01107BB
:100EC00001D4064601250022033B8DF80720032BA1
:100ED00047D8DFE803F0043E423B2E46F3E7244BBD
:100EE000DA6A92073DD4DC6A14F0804408D02833D3
:100EF0001B78EBB10DF107010120FFF77FFF0446DE
:100F00009DF8073093B92022314602A801F0DCFD9C
:100F1000099B45B3C3F3080222B96FEA53236FEA72
:100F20004323099302A9204601F0ABFD0AB070BD2E
:100F3000104B1B782BB10DF107010120FFF77AFF51
:100F4000DDE70D4B188884B2002CD9D0FFF790FF55
:100F5000D5E70DF107010020CFE70DF107010020D3
:100F6000ECE70024CCE723F4FF7323F00103D8E778
:100F700000ED00E029ED00E02AED00E0024A5369AF
:100F800043F010035361704700ED00E0044B996893
:100F9000586A884203D003494FF080520A60704774
:100FA000B402002004ED00E0044800232021C21810
:100FB0000133302B82F80013F9D1704700E100E0D3
:100FC00038B504464FF02003EFF3118583F3118801
:100FD000BFF36F8F01F0BEF80A4B9B68A3420BD1A1
:100FE000094B5A68C2F3080212B92846FFF7DEFD22
:100FF0005A6842F080525A602846BDE8384001F0F5
:1010000027BF00BFB402002000ED00E01FB5084B71
:101010000193084B0293084B039301AB0093074ADB
:10102000074B0121684600F093F805B05DF804FB1A
:10103000000000200000000000000B06000000205F
:1010400000000220DFF884C0F0B5064600271046F5
:101050008F4200DBF0BD56F827E0DEF8044094B381
:1010600043B1651E2C4219D11F2C17D9DEF8002080
:10107000154213D1202CC2B2DEF80050DEF8080071
:101080000FD9B4F1004F0ED8013CB4FA84F4C4F186
:101090001F046400072A44EA000406D96FF0150013
:1010A000D8E70824F6E73E24F4E725F01F051543AA
:1010B00045F0100544F00104CCF80820501CCCF891
:1010C0000C50CCF810400137C2E700BF90ED00E0B3
:1010D000034B05225A60BFF34F8FBFF36F8F7047EA
:1010E00090ED00E0BFF35F8F014B00225A60704724
:1010F00090ED00E013490868082810B51ED8FFF7E6
:10110000F1FF114C49680022904201F10C0105D118
:101110000E4B1870FFF7DCFF002010BDA26051F8E5
:101120000C3C23F01F03134343F01003E36051F81A
:10113000043C43F0010323610132E5E74FF0FF3047
:10114000EBE700BFCC31000090ED00E00407002089
:1011500010B5034C01232278FFF774FF207010BDF7
:1011600004070020014B1860704700BF04000020F6
:101170004FF02003EFF3118283F31188BFF36F8FD9
:1011800006490123C1F840354FF08041C1F8783558
:1011900082F31188BFF36F8F0020704700E0014099
:1011A0004FF08043C0B2C3F81C05BFF34F8F054911
:1011B000054BCA6802F4E0621343CB60BFF34F8F64
:1011C00000BFFDE700ED00E00400FA0520B1034B8D
:1011D000800143F001031847704700BFB0310000A1
:1011E00008B5094B1A786AB9012119700620052142
:1011F000FFF73AFD0620FFF727FD044B4FF00042B2
:10120000C3F80423002008BD05070020006000404B
:101210002D4BF0B546682D481340834245D00DD87C
:10122000062B15D005D89BB1022B40D06FF01500CE
:101230003AE0B3F5801FF9D1012309E02448834245
:1012400037D0B3F5A00F36D0B3F5800FEED102231F
:10125000D00654BFC2F34015032582F4807497056D
:10126000C2F34020C4F3002407D512F4006F77685E
:1012700023D001228A40C7F80825327A01F01F01E5
:1012800041EA42111F2940EA4402C6BF01F01F0192
:10129000104E4FF0A04642EA032301F5E07143EA05
:1012A000850346F821300020F0BD0723D0E7042352
:1012B000CEE70523CCE70323CAE7520542BF01224C
:1012C0008A40C7F80C25D8E70600F0000600100099
:1012D00002004000000300501F288ABF074B4FF058
:1012E000A04300F01F0003EB8000D0F8003723F488
:1012F000403343EA0141C0F8001770470003005033
:10130000F7B54368C668187A01F01F040D464949CD
:10131000D1F8042344EA4014D2B2002303F5A270AA
:1013200051F82000C0F3052084426DD122FA03F069
:10133000C00769D59A0002F1804202F5C042D2F896
:10134000100520F00100C2F81005012202FA03F393
:10135000C1F8083320460021FFF7BEFFF368EB40D9
:1013600013F001004ED03369EB4013F0010049D077
:10137000B369EB4013F0010250D0F3692D4FEB40FD
:10138000DB075FBF716921FA05F505F00105C5F1BD
:10139000020554BFEDB20325002606F5A27357F8E7
:1013A000230010F0030033D1B20002F1804202F5B5
:1013B000C0422402D2F8101521F44F3121F44071BB
:1013C000C2F81015D2F8101504F47C5444EA05450F
:1013D0000D4306F14001890089B201F1804101F518
:1013E000C041C2F810550860096801910199D2F80E
:1013F000101541F00101C2F81015012202FA06F69B
:10140000C7F8046303B0F0BD0133082B86D1A1E710
:101410000136082EC1D16FF01200F3E77169E9407F
:1014200001F00101C1F103012046C9B2FFF754FFE9
:101430001046E7E700600040B2F5A03F70B4C46812
:1014400016D145682E7A01F01F0545EA46151F2D75
:10145000C6BF05F01F051E4E4FF0A04605F5E0750E
:1014600056F82550ED0707D56FF0220070BC704785
:10147000B2F5005FE56826D0E66801258D4035436A
:101480002669E56001258D40B2F5005F14BF2E434B
:10149000AE432661A669B2F5A03FE2690CBF2E43B8
:1014A000AE43B3F5C02F0CBF2A43AA43E261626981
:1014B000A661B3F5802F0CBF154322EA05056561CF
:1014C00070BCFFF71DBF01268E4025EA0605D7E751
:1014D00000030050F0B5002685B0CDE90266284D26
:1014E0002C685CB1274801F0AFFB0290264801F060
:1014F000ABFB03902E602B680093009B234D0022D2
:1015000001269446D5F8043306FA02F119421DD09B
:10151000910001F1804101F5C2410B68B3B102F5C0
:10152000A27304AF55F82330C1F800C0C3F34030B4
:1015300007EB8000C3F3042350F8087C06FA03F39A
:101540003B4340F8083C0B680193019B0132082A99
:10155000D8D1029911B10B4801F05BFB039911B18D
:10156000094801F056FB44B1064801F09FFB0648CC
:1015700005B0BDE8F04001F099BB05B0F0BD00BF7B
:101580007C6100406C0000207C0000200060004076
:10159000024BD3F88004C3F8800470470020004059
:1015A000F0B54B79012B29D0032B24D110248B7952
:1015B000032B20D1CE7926B1012E1CD143681B7894
:1015C000CBB10A79012A1BD0022A1DD09AB915463F
:1015D0000B68B3F5164F69D033D8B3F5165F67D0F3
:1015E0001CD8B3F5966F65D010D8B3F5967F64D04C
:1015F000B3F5167F64D06FF0220056E00024D6E7E2
:101600004FF480750E22E3E70025FBE7B3F5166F74
:1016100059D0B3F5965FEED1354B39E0B3F5E14FD4
:1016200054D007D8B3F5615F52D0B3F5964FE2D1ED
:10163000304B2DE047F61227BB42DCD14FF40003BC
:1016400026E0B3F5613F46D011D8B3F5963F44D0BC
:1016500008D84DF6C027BB4241D0B3F5614FCAD17F
:10166000254B15E0B3F5E13FC5D1244B10E0B3F5B0
:10167000612F37D007D8224FBB4235D0B3F5E12FC9
:10168000B9D1204B04E0204FBB42B4D14FF080537E
:101690001E4F224335432A43C7F82435C7F86C252B
:1016A000C36803C983E803000020F0BD184BEFE7CF
:1016B000184BEDE74FF49E23EAE74FF4A033E7E73A
:1016C0004FF41C33E4E74FF41D23E1E7124BDFE74F
:1016D0004FF46C13DCE7114BDAE7114BD8E74FF40A
:1016E0006503D5E70F4BD3E74FF08063D0E700BF2A
:1016F00000B0130000A04E0000F0EB0000E0D701A6
:1017000090D0030000705F0740420F0000200040AF
:1017100000509D000050270000F0750000B0AF039E
:1017200000903A0100D0BE0E084B1A6882B052B148
:10173000002018601B680193019B054BD3F81835F6
:101740000B7002B070474FF0FF30FAE708210040FD
:1017500000200040F7B50E4601F0E5FB1B4DC0B977
:1017600064240127BFF35B8F55E8003F002B03D1B2
:1017700045E80072002AF7D1BFF35B8F0BD0212020
:101780000021013C00F0E4FD14F0FF04EAD103B0B5
:10179000F0BD01232B600E4C0022226022680192D2
:1017A000019A0C4A01211160C2F814654FF47A764F
:1017B000236823B9012001F021FB013EF8D1064B3B
:1017C00001221A6000232B60E1E700BFC80100205E
:1017D0001C210040082000400C2000404FF0A04396
:1017E00037B5164C4022C3F80825032100220825EE
:1017F000C3F81817C3F82027C4F814550625C4F8F1
:101800000C552025C3F80855C3F81417C3F81C2736
:101810000523C4F808350723C168C4F81035FFF75D
:10182000BFFE48B90423C4F80035054B18601B6897
:101830000193019B0123236003B030BD00200040D1
:1018400008210040F0B54B79012B2BD0032B26D17A
:1018500010278B79032B22D1CD7925B1012D1ED1F3
:1018600043681B79DBB10A79012A1DD0022A1FD0F7
:10187000AAB914460B684668B3F5164F36686DD0A2
:1018800033D8B3F5165F6CD01CD8B3F5966F6AD019
:1018900010D8B3F5967F69D0B3F5167F69D06FF095
:1018A00022005AE00027D4E74FF480740E22E1E7CB
:1018B0000024FBE7B3F5166F5ED0B3F5965FEED16B
:1018C000384B3EE0B3F5E14F59D007D8B3F5615F2F
:1018D00057D0B3F5964FE2D1334B32E047F6122C96
:1018E0006345DCD14FF400032BE0B3F5613F4AD0F0
:1018F00013D8B3F5963F49D009D84DF6C02C6345AF
:1019000046D0B3F5614FCAD14FF46B0319E0B3F57C
:10191000E13FC4D14FF0EB7313E0B3F5612F3AD040
:1019200009D8DFF898C0634538D0B3F5E12FB6D1B8
:101930004FF0E86305E0DFF888C06345AFD14FF0B2
:101940008053C6F82435C36803C92C433A43224365
:10195000C6F86C2583E803000020F0BD4FF41D039A
:10196000EFE7124BEDE74FF49E23EAE74FF4A03385
:10197000E7E74FF41C33E4E74FF41D23E1E70C4B9A
:10198000DFE70C4BDDE74FF06C73DAE70A4BD8E783
:101990004FF46503D5E74FF07063D2E74FF08063F3
:1019A000CFE700BF00B0130000A04E00005027009A
:1019B00000C0750000F03A0000903A0190D003009A
:1019C00040420F0037B54268134B1468C5680422C3
:1019D000C3F808250322C3F808270022C3F8042708
:1019E0002223C4F80C352123C4F814352946FFF707
:1019F00029FF78B90823C4F80035C4F81001D4F8D9
:101A000010310193019B0C350123C4F83455C4F8FF
:101A10003835236003B030BD000300500A4B1B680B
:101A20005A1C05BF094B0A4A0A4A10680ABF1B78AC
:101A30001068C0F303100D2B04D101288CBF0020C7
:101A4000012070470020704730010010E00F00F0C7
:101A5000E80F00F03401001008B5FFF7DFFF40B1D8
:101A60004FF080430022C3F80C21C3F81021C3F8C3
:101A70003825FFF7D3FF002846D04FF08052484B5F
:101A8000D2F80414C3F82015D2F80814C3F82415AA
:101A9000D2F80C14C3F82815D2F81014C3F82C157A
:101AA000D2F81414C3F83015D2F81814C3F834154A
:101AB000D2F81C14C3F84015D2F82014C3F844150A
:101AC000D2F82414C3F84815D2F82814C3F84C15DA
:101AD000D2F82C14C3F85015D2F83014C3F85415AA
:101AE000D2F83414C3F86015D2F83814C3F864156A
:101AF000D2F83C14C3F86815D2F84014C3F86C153A
:101B0000D2F84424C3F87025FFF788FF48B14FF09E
:101B10008043D3F80024D20744BF6FF00102C3F81A
:101B200000244FF01023D3F80022002A03DBD3F85F
:101B30000432002B2FDA1B4B0122C3F80425D3F803
:101B40000024002AFBD04FF010221221C2F800120C
:101B5000D3F80024002AFBD04FF010231222C3F840
:101B60000422104B1A46D3F800140029FBD00021A0
:101B7000C3F80415D2F80034002BFBD0BFF34F8F0D
:101B800009490A4BCA6802F4E0621343CB60BFF311
:101B90004F8F00BFFDE7064B064A1A6008BD00BF25
:101BA00000C0004000E0014000ED00E00400FA0544
:101BB000200000200090D003F8B5094B53F82040D6
:101BC0000130002753F82060A64200D8F8BDD4E9C0
:101BD00000352846984708B105B1AF600834F3E7EF
:101BE000603200000F4B70B50F4C05461E469C42FC
:101BF00004D10D4CB44208D1002410E0A26812B107
:101C00002268AA420BD01034F1E7A3680BB9103454
:101C1000F0E72168284600F04BFF0028F7D1204666
:101C200070BD00BF8C0000202C00002008B50B4DBB
:101C30004FF02002EFF3118382F31188BFF36F8F0F
:101C400001F08FF9012102280446D8BF084601F0AF
:101C500098F92C62FFF75CF8EAE700BFB4020020B5
:101C60000248034A0021121A00F059BFB8000020B0
:101C70000807002008B50648064A0749121A00F06E
:101C800023FFBDE80840054A0549064800F01CBF8F
:101C900000000020B4000020143300000000000009
:101CA000143300000000002008B50C4B0122022074
:101CB0001A70FFF781FF0A4A0A490B4800F05AFDE3
:101CC0000320FFF779FF00F08FFBFEF795FB074A33
:101CD000137B23F00103137308BD00BF0607002028
:101CE0008E320000D8320000E832000040020020AE
:101CF0002DE98048DFF8F490A5B089F30888344DC9
:101D0000344E6B69DFF8E8A0DFF8E880324F43F427
:101D1000007300246B61E02385F82230EC772C7689
:101D20006C76AC766B6A43F4E0236B62FFF726F9BE
:101D3000FEF7E8FF4FF0FF33AB62EB62274D40F256
:101D40000113ADF8283007ABAB602046CDE91F4446
:101D5000FFF732FF0120FFF72FFF4FF0010B00F0DC
:101D60009DFA1F4B6E624FF48062414605933046E8
:101D70005346CDE9034BCDE90144009400F00EFB3E
:101D8000737B304623F00403737301F081F80F2353
:101D9000CDE902431349144B4FF4A0723846CDE904
:101DA00004B4CDE9004400F0F9FA7B7BEF6023F046
:101DB00004037B7305F11803C5E906332C75C5F8D8
:101DC000049053464FF4806241463046FEF77EFF52
:101DD00000ED00E040020020CC010020B402002011
:101DE0000F330000080B00202D1C000048140020B9
:101DF000A91C00000807002010B5084C23685BB13F
:101E0000FEF78AFE03462068054A0344BDE81040F9
:101E10001361002101F0B5B810BD00BFEC02002035
:101E2000B4020020F8B505460C464FF02003EFF34E
:101E3000118683F31188BFF36F8F0D4B00224FF48F
:101E4000004740F2E73000211A61E7FB05014FF43B
:101E50007A720023FEF754F9064B1860064B1C609B
:101E6000FFF7CAFF86F31188BFF36F8FF8BD00BF7D
:101E7000B4020020EC020020E80200204FF0200312
:101E8000EFF3118183F31188BFF36F8F044B9A68CE
:101E9000D37B013BD37381F31188BFF36F8F7047FE
:101EA000B4020020094B03F12802824205D19B684D
:101EB0008B4202D14B7BDB0606D1D1E900321360A5
:101EC0005A600023C1E90033704700BFB40200200C
:101ED00070B5104C064604F1280000F0CFFFA3684F
:101EE000597B0546880644BF41F00801597305B97E
:101EF000E5684EB95A7BD20606D1AA6922B9DA89B9
:101F00007F2A01D9636270BDAB4201D0FFF774FF35
:101F10006562F8E7B402002010B54FF02003EFF33C
:101F2000118483F31188BFF36F8F084B9A68D37BBA
:101F30000133D3730020FFF7CBFF84F31188BFF385
:101F40006F8FBDE8104000F08FBF00BFB4020020CB
:101F500070B4437BDB062AD1836943BB154A114623
:101F600051F8284F8C4218BF2346002BD46A38BF43
:101F70000023B3B190F90E6093F90E50AE4203DB2B
:101F8000A3420ED01B68F4E75A68C0E90032106023
:101F90005860437B63F07F03437370BC0020FFF7FE
:101FA00097BFC0E90014D36A1860D062F1E770BC33
:101FB000704700BFB402002010B54FF02002EFF3CD
:101FC000118482F31188BFF36F8F427B510704D4D1
:101FD00084F31188BFF36F8F10BD22F004024273A7
:101FE000FFF7B6FF21460248BDE8104000F025BFCC
:101FF00007070020F8B501464FF02003EFF31184E6
:1020000083F31188BFF36F8F90F90D30002B02DA44
:102010001948FFF747FF194A1046D56A50F8283F7C
:10202000834208BF0023002B38BF0023EBB191F996
:102030000E7093F90E60B74203DB9D4215D01B680A
:10204000F4E75868C1E90030016059604B7B906843
:1020500063F07F034B73431A58425841FFF738FF30
:1020600084F31188BFF36F8FF8BDC1E90005D36A0F
:102070001960D162EAE700BFDC020020B402002050
:1020800038B5154A154B146801469868A0421C469D
:1020900003D1BDE83840FFF7AFBE00251560104AF8
:1020A0001268B2B1C2897F2A13D80E4A90F90E5035
:1020B000126895420DDB0C4A90420AD0826942B9FF
:1020C0001A698A4202DCFFF795FFE2E7521A1A61A9
:1020D00038BD00232361FBE7E4020020B4020020A6
:1020E000EC020020E8020020CC01002070B504467C
:1020F000183000F020FF4FF02003EFF3118683F338
:102100001188BFF36F8F94F90D30002B07DA0F4859
:102110002146FFF7C7FE637B03F07F0363730C4D1B
:10212000637BA86843F010036373031B5842584154
:10213000FFF7CEFE86F31188BFF36F8FAB68A34223
:1021400003D1BDE8704000F08FBE70BDDC020020FE
:10215000B4020020836D2DE9F041044603B1984795
:1021600004F1180000F0E7FE4FF02003EFF31186B2
:1021700083F31188BFF36F8F637BD80623D1A269E5
:102180000ABB190607D51F482146FFF78BFE637B64
:1021900003F07F0363731C4B9868021B504250414D
:1021A000FFF796FE637B43F00803637304F128088E
:1021B0000027A56A454500D095B986F31188BFF37D
:1021C0006F8FBDE8F0819B07ECD5A0682146FFF733
:1021D00069FE637B23F0020363730023A360E1E7DE
:1021E00005F1180000F0A7FEA8682946FFF75AFE7F
:1021F0006B7BAF6023F002036B732F672846FFF7FA
:10220000A7FED6E7DC020020B402002008B590F952
:102210000D30002B014606DA0748FFF743FE4B7BE3
:1022200003F07F034B73054B9868431A584258419B
:10223000BDE80840FFF74CBEDC020020B4020020DD
:10224000F8B5054600F0B7FE2C184FF02003EFF369
:10225000118783F31188BFF36F8F0D4E0D4BB0685C
:10226000186000F050FEB0680B492A46EB17183092
:1022700000F056F9B268537B43F0100353733846AD
:10228000FEF794FC00F097FE201A20EAE070F8BDFB
:10229000B4020020E4020020B12E0000044B002113
:1022A00003F12802C3E90A220846FFF7BBBD00BFBD
:1022B000B4020020F8B5244C244BA2689A4230D0D6
:1022C0004FF02003EFF3118583F31188BFF36F8F75
:1022D000A16804F12800FFF7E5FDA36AA268E16A9E
:1022E000834208BF0023002B38BF00232BB392F991
:1022F0000E7093F90E60B74203DB8B421DD01B6852
:10230000F4E75968C2E900310A605A60537B63F010
:102310007F0353730120FFF7DBFD85F31188BFF3C3
:102320006F8F4FF02003EFF3118083F31188BFF319
:102330006F8FBDE8F840FEF739BCC2E90001E36ADF
:102340001A60E262E2E700BFB4020020CC01002084
:102350000B46013308BFB0F1FF3F10B506D10B4B60
:102360009868FFF7C3FE4FF0FF3010BD044648B930
:10237000FFF7A0FF4FF47A7084FB0034D80B40EADB
:102380004440F2E7FFF75CFF0446F3E7B4020020A5
:10239000014B9868704700BFB4020020F0B587B0C9
:1023A000DDE90F6700F12805CDE9036786730E9E0E
:1023B0000296C0E90A550D9E019604250C9E4573B0
:1023C0000025C0E906550773C57300960446FEF75D
:1023D00063FC044B9B68C4E9155503B19B6EA3666F
:1023E00007B0F0BDB40200202DE9F04FDFF8B49043
:1023F0002B4D87B0C8464D4505F130040DD3FFF78E
:102400003DFD274CDFF8A0A04FF40049444521D3FF
:1024100007B0BDE8F04FFFF77FBD54F8043C0593CB
:1024200054F8103C049354F8143C039354F8183CAB
:10243000029354F81C3C019354F8203C009354E957
:102440000A2354E90C01FFF7A9FF54F8303C5D65FD
:102450002546D0E7616A4B1C17D021EAE17140F2B2
:10246000E73B4FF0000CC9FB01BC00234FF47A722C
:1024700058466146FDF744FE0027064656EA070324
:10248000256804D12846FFF797FD3034BEE70246A1
:102490003B46514605F1180000F042F8F5E700BF51
:1024A0008C0000208C000020B12E0000034B1B6824
:1024B0000BB9FEF731BB0020704700BFF0020020CF
:1024C000036840B1074A5268904204D01BB19A6831
:1024D00081680A449A60426813605A600023C0E928
:1024E00000337047240000200B4B10B51C689C4241
:1024F00008BF0024FFF7DAFF54B1A368181A20EAD6
:10250000E070064B1B6913B19842A8BF184610BD76
:102510006FF00040F5E700BF24000020B402002067
:102520002DE9F74F019119464B1C08BFB2F1FF3F4F
:10253000824661D0541C6FF0010341F100054FF059
:10254000FF3BB3EB04086BEB0509B8F1000F79F121
:1025500000030FDBFFF7AAFF2C4AD2E9001C6FF043
:1025600001035B1A6BEB0C021E1B62EB0507341AAE
:1025700067EBE075019BCAF80C304FF02003EFF3D6
:10258000118683F31188BFF36F8FFFF78FFF012C44
:1025900075F100031E4B1A68B8BF012404449A4227
:1025A000CAF8084001D05C6852B95A68CAF80420D9
:1025B0005A68CAF80030C2F800A0C3F804A00DE0C1
:1025C0009068DAF80810884219DD411A9160516864
:1025D000CAE90021C1F800A0C2F804A01A689A4212
:1025E00006D0924504D1FFF77FFF0021FEF736FAAF
:1025F00086F31188BFF36F8F03B0BDE8F08F091A1F
:102600009442CAF80810D0D01268CDE7B800002074
:10261000240000202DE9F0470646FFF731FD4FF07A
:102620002003EFF3118483F31188BFF36F8F204DE4
:10263000DFF88080DFF880A02E60C146DAF8000065
:102640002A685045D8E9006705D020B183689342D5
:1026500013DD9B1A8360B61847EBE277C9E9006780
:1026600000262E60FFF740FF3146FEF7F7F984F3AE
:102670001188BFF36F8FBDE8F087F61847EBE3775B
:10268000D31A2B6000238360C8E90067FFF718FFA7
:1026900084F31188BFF36F8FC36898474FF020030E
:1026A000EFF3118483F31188BFF36F8FC6E700BF88
:1026B000F0020020B80000202400002010B54FF0E8
:1026C0002003EFF3118483F31188BFF36F8FFEF7BC
:1026D00023FA064BD3E90023121843F1000384F3D5
:1026E0001188BFF36F8F1046194610BDB800002047
:1026F00038B5064C064DAC4201D3002038BDD4E9B4
:102700000112204600F05BFC1434F4E78C0000203A
:102710008C000020012303FA01F1C3681B681942F1
:1027200018BF82F0010212B18368DB681847836822
:102730001B69FBE738B5C5680C46836840F2016247
:102740001B68984728B9012303FA04F12B680B434F
:102750002B6038BD0020704770B504460D464520FB
:10276000A04729465220A047294623465220BDE8CB
:10277000704018470FB407B504A951F8040B019134
:10278000FEF772F803B05DF804EB04B0704704463E
:1027900008B5084611461A46A047FFF7F9FDFEF7AF
:1027A0000FFC036803EBC1018368B3F5004F2CBF36
:1027B00051F8220031F81200704710B504688068A3
:1027C00004EBC101B0F5004F2CBF41F8223021F8D5
:1027D000123010BD2DE9F041002204460D46FFF7EE
:1027E000E0FFE268A3681040B3F5004FB0FA80F252
:1027F00034BF002001206368C0F11F00801A03EB82
:10280000C0014A68561C4E60A2B9012202FA00F1CA
:1028100062690A436261294643F8305002222B461E
:102820002046FFF7CAFF032229462046BDE8F041B3
:10283000FFF7C3BF53F83070022239462046FFF736
:10284000B0FF02220346064629462046FFF7B5FFA1
:102850003B46032229462046FFF7AFFF03223146BD
:102860002B462046FFF7A9FF02223946DDE7F8B5DF
:102870008B18CC1D24F0070423F007031B1BDB0877
:1028800047F6FF72B3F5004F2CBF6FF000411146C1
:1028900093420460E16094BF00210121B3FA83F602
:1028A000C1F1200104F11805891B21F06041C4E940
:1028B0000153002003312460606121611746844682
:1028C000A268BA4294BF00220122C2F11F02921BE9
:1028D00090420ADD5B1A20460022FFF76EFF216955
:1028E0002046BDE8F840FFF775BFC5F804C00130C9
:1028F00045F808CBE4E77047C368C9B20C2202FB75
:1029000001314B7A23B9087AB0FA80F04009704758
:102910000220704770B5C9B24468C5684FF0200303
:10292000EFF3118683F31188BFF36F8F0C224A43B4
:10293000AB18187A90B10138C0B2187288B904EB9C
:102940008101A850CA78586002F1804201211160CB
:10295000587286F31188BFF36F8F70BD6FF044001B
:10296000F7E70020F5E72DE9F8434668D0F80CE0DA
:10297000CFB24AB10C237B435EF803309A4252D067
:1029800013B11B68002BF9D14FF02003EFF3118C2A
:1029900083F31188BFF36F8F0C257D430EEB050386
:1029A0001C7A0134E4B21C728CF31188BFF36F8F70
:1029B0005AB34FF0804C4FF00308CCF8088393F8DB
:1029C00009C0BCF1000F15D14FF02008EFF31189B9
:1029D00088F31188BFF36F8FC2F800C0D3F804806A
:1029E000B8F1000F1BD15A604EF8052089F3118809
:1029F000BFF36F8F4FF080430325C3F80453BCF13E
:102A0000000F02D0D2E901329847012C05D106EB24
:102A10008706B37803F180431C60002005E0C8F806
:102A200000205A60E2E76FF00F00BDE8F883002253
:102A3000FFF799BF002210B5012104461046FEF7AA
:102A400013F90020FEF700F94FF080430122C3F88C
:102A500018250322C3F80423E3680020C3E900001B
:102A6000E368C3E9030010BD70477047FEF76EB816
:102A700008B5FFF7FBFF002008BD0021012000F092
:102A800000B800F0BDB90146006800F0B9B908B55A
:102A9000FEF74CF9BDE80840FEF778BA0139034665
:102AA00011F8012F0AB91A70704703F8012BF7E7E4
:102AB000431E013913F8012F11F8010F824201D191
:102AC000002AF7D1101A7047F0B581EA0004A50773
:102AD00003460BD0013B0A4491421BD1F0BD002AB2
:102AE000FCD011F8014B03F8014B013A9C07F6D1D9
:102AF00022F003041D1F96080F19B94205D16FF08B
:102B0000030505FB06222344E4E751F804CB45F80E
:102B100004CFF2E711F8014B03F8014FDCE770B581
:102B2000C9B203469C0711D141EA012422F00306F1
:102B300044EA04451E449408B3420DD16FF00305E6
:102B400005FB04221A44934209D170BD002AFCD02F
:102B500003F8011B013AE5E743F8045BECE703F8EF
:102B6000011BF0E74FF0FF307047FEF775BF436879
:102B70005B68D3F810350B600020704743685B68D2
:102B8000D3F8040542400A404240C3F8042500201F
:102B9000704743685B680020C3F8081570474368B6
:102BA0005B680020C3F80C15704743685A68D2F878
:102BB00004354B40C2F8043500207047C36858689C
:102BC00030B558B10024814213D108685CB99C68C3
:102BD0005860A14200D198600020086072B90020BE
:102BE00030BD2846EFE720609868814208BF9C60AE
:102BF000F2E705680446002DF3D13AB15A680A603D
:102C0000986859600028EAD19960E9E76FF01500EB
:102C1000E6E7F8B5C7680E467968054699B10C68CD
:102C2000002C38BF00248A683B6932401A4202D027
:102C30004B682846984734B12368002B38BF0023DF
:102C400021461C46EFE7F8BDF8B5C3684768D3E9ED
:102C500003120A40D3E90610014322EA010279680F
:102C60005B69D1F810455C4022EA04040125002686
:102C70000AB92046F8BD2A4209D03B7A06F01F0067
:102C8000002140EA4310FEF727FB22EA0502013645
:102C90006D00EDE710B4C468012303FA01F2236963
:102CA00023EA0203236110BCFEF72ABBF8B5C4680F
:102CB0004768D4E903321A40D4E906310B4322EACB
:102CC00003020126002502B9F8BD16420FD0616942
:102CD0003B7AE94001F00101C1F1030105F01F0059
:102CE000C9B240EA4310FEF7F7FA22EA06020135BC
:102CF0007600E8E710B4C468012303FA01F22369FF
:102D00001343236110BCFEF7FBBAC2680B4692E87E
:102D1000030083E8030000207047C2680B4692E876
:102D2000030083E803000020704743681B68D3F862
:102D30008004C3F8800470474368C2681B68D3F8F6
:102D4000100182B060B1127B0A700020C3F810013C
:102D5000D3F810210192019A01221A6002B0704743
:102D60004FF0FF30FAE72DE9FF4143688DF8071077
:102D70001C68C66800F0D7F8E0B9642506F10807BA
:102D80004FF00108BFF35B8F57E8003F002B03D1E2
:102D900047E80082002AF7D1BFF35B8F0CD02120D7
:102DA0000021013DFFF7D4FA15F0FF05EAD104B088
:102DB000BDE8F0810123B3600023C4F82031D4F8CA
:102DC00020310393039B0DF10703C4F8443501231D
:102DD000C4F848354FF47A75A360D4F8203123B98C
:102DE000012000F00BF8013DF7D10123E36000233F
:102DF000B360DCE708B50020FEF7D2F900F099B81F
:102E0000F8B505460E464FF02003EFF3118783F324
:102E10001188BFF36F8FFFF7BBFA3146044628468F
:102E2000FFF7E8FF87F31188BFF36F8F2046BDE8F7
:102E3000F840FEF7C5B8FFF718BE21B9EFF30580DB
:102E400008B9FDF7B3BE81F31188BFF36F8F7047E8
:102E5000034620B9EFF305820AB9FDF7A7BE83F355
:102E60001188BFF36F8F70474FF02003EFF311808D
:102E700083F31188BFF36F8FFFF7EABF0346006843
:102E8000834203D0002838BF0020704700207047DD
:102E900010B54FF02003EFF3118483F31188BFF3D3
:102EA0006F8FFFF755F884F31188BFF36F8F10BD54
:102EB00038B550F8103C0446A0F11801C3B14FF0EA
:102EC0002003EFF3118583F31188BFF36F8F50F860
:102ED000100CFEF7E7FF14F80B3C23F0020304F894
:102EE0000B3C002344F8103C85F31188BFF36F8F2F
:102EF00014F80B3C23F0140304F80B3C0846BDE81F
:102F00003840FFF7C5BF10B54FF02003EFF3118431
:102F100083F31188BFF36F8FFFF778F984F311887B
:102F2000BFF36F8F10BDEFF30580003818BF01208D
:102F30007047FEF74BB910B54FF02002EFF3118444
:102F400082F31188BFF36F8F03683BB1FFF7B8FAC4
:102F5000002084F31188BFF36F8F10BD6FF0150050
:102F6000F7E710B54FF02003EFF3118483F31188D6
:102F7000BFF36F8FFFF7B8FA84F31188BFF36F8F39
:102F800010BD70B504460D464FF02003EFF31186D7
:102F900083F31188BFF36F8FFFF7A6FA012805DDD1
:102FA000A04203DD29462046FDF758FD86F311882F
:102FB000BFF36F8F70BD08B5FFF780FB08BD10B47D
:102FC00000F10C04C0E9034410BCFFF750BC70478B
:082FD00060D1FF7F0100000049
:102FD8007111000000000000712A000000000000CC
:102FE800F126000000000000F510000000000000BD
:102FF800352A00002C000020DD1700003C000020CE
:10300800C51900004C0000208508000000000000E1
:10301800F90900005C000020E11100007C0000209C
:08302800E11100006C00002022
:103030000000000029090000000000007B2A0000B9
:10304000000000007B2A0000000000007B2A000036
:10305000000000007B2A0000000000007B2A000026
:1030600000000000D5140000000000007B2A0000D2
:10307000000000007B2A0000000000007B2A000006
:10308000000000007B2A0000000000007B2A0000F6
:10309000000000007B2A0000000000007B2A0000E6
:1030A000000000007B2A0000000000007B2A0000D6
:1030B000000000007B2A000000000000CD09000095
:1030C000000000007B2A0000000000007B2A0000B6
:1030D000000000007B2A0000000000007B2A0000A6
:1030E000000000007B2A0000000000007B2A000096
:1030F000000000007B2A0000000000007B2A000086
:10310000000000007B2A0000000000007B2A000075
:10311000000000007B2A0000000000007B2A000065
:10312000000000007B2A0000000000007B2A000055
:10313000000000007B2A0000000000007B2A000045
:10314000000000007B2A0000000000007B2A000035
:10315000000000007B2A0000000000007B2A000025
:10316000000000007B2A0000000000007B2A000015
:10317000000000007B2A0000000000007B2A000005
:10318000000000007B2A0000000000007B2A0000F5
:10319000000000007B2A0000000000007B2A0000E5
:1031A000000000007B2A0000000000007B2A0000D5
:1031B0000338FDD8704700002F2A000015290000B1
:1031C0006729000000000000F9280000020000004C
:1031D000D431000000000000BA32000024000207D1
:1031E00000000020C232000020000B11111200006C
:1031F0006F2B00007D2B0000932B00009F2B000005
:10320000AB2B000039140000BD2B0000F52C000092
:10321000952C000000000000FFFFFFFF00000050A1
:1032200000000000FF030000000300500100000048
:10323000291700005517000091150000A115000086
:103240000B2D0000392D0000672D00002B2D0000F4
:10325000451800001B2D0000008002400000000007
:10326000D82F00001830000020300000303000005F
:1032700030300000F5FFFFFF000100040401080CDE
:103280004750494F5F3000424C494E4B210A005590
:103290004152545F3000434C4F434B007379735F8E
:1032A000636C6F636B005465726D696E616C005284
:1032B00054540053454747455200464C4153485FDC
:1032C00030005352414D5F30004750494F5F31004D
:1032D00001554152545F310076322E332E302D721B
:1032E00063312D6E637331002A2A2A20426F6F7476
:1032F000696E67205A6570687972204F5320627535
:10330000696C64202573202573202A2A2A0A006DFF
:0433100061696E0081
:1033140055270000652B000000C2010000010300D6
:1033240000C20100000103000000000000000000D2
:0C3334000090D0032400002024000020A2
:103340009632000078320000B8310000C40000203E
:103350008F320000D0320000303200000800002020
:10336000D13200005832000044320000100000202A
:103370009C3200000000000000000000000000007F
:103380008032000018320000EC310000880100207B
:10339000C932000024320000EC310000A8010020F6
:1033A0008C0000208C0000200000000000000000C5
:1033B0000F000000A0000020A0000020000000007E
:0833C000000000000F000000F6
:0400000300000DB933
:00000001FF
