:100000001090002061680000A59101009168000037
:1000100091680000916800009168000000000000F5
:10002000000000000000000000000000A5660000C5
:1000300091680000000000005D6600007F910100F3
:10004000216800002168000021680000216800008C
:10005000216800002168000021680000216800007C
:10006000216800002168000021680000216800006C
:10007000216800002168000021680000216800005C
:10008000216800002168000021680000216800004C
:10009000216800002168000021680000216800003C
:1000A000216800002168000021680000216800002C
:1000B000216800002168000021680000216800001C
:1000C000216800002168000021680000216800000C
:1000D00021680000216800002168000021680000FC
:1000E00021680000216800002168000021680000EC
:1000F00021680000216800002168000021680000DC
:1001000001F0FF01102A2BDB10F0070F08D010F8C8
:10011000013B013A8B422DD010F0070F42B3F6D1CC
:10012000F0B441EA012141EA014122F007047FF0E5
:1001300000070023F0E80256083C85EA010586EA3C
:10014000010685FA47F5A3FA87F586FA47F6A5FA78
:1001500087F68EB9EED1F0BC01F0FF0102F0070284
:1001600032B110F8013B013A83EA010313B1F8D12F
:100170000020704701387047002D06BF3546033810
:10018000073815F0010F07D1013015F4807F02BF49
:10019000013015F4C03F0130F0BC0138704700BF9A
:1001A00081F0004102E000BF83F0004330B54FEA28
:1001B00041044FEA430594EA050F08BF90EA020F95
:1001C0001FBF54EA000C55EA020C7FEA645C7FEA28
:1001D000655C00F0E2804FEA5454D4EB5555B8BF4B
:1001E0006D420CDD2C4480EA020281EA030382EABC
:1001F000000083EA010180EA020281EA0303362D4E
:1002000088BF30BD11F0004F4FEA01314FF4801C20
:100210004CEA113102D0404261EB410113F0004F32
:100220004FEA03334CEA133302D0524263EB4303E9
:1002300094EA050F00F0A780A4F10104D5F1200E87
:100240000DDB02FA0EFC22FA05F2801841F10001E2
:1002500003FA0EF2801843FA05F359410EE0A5F1B6
:1002600020050EF1200E012A03FA0EFC28BF4CF0E7
:10027000020C43FA05F3C01851EBE37101F000459D
:1002800007D54FF0000EDCF1000C7EEB00006EEBAA
:100290000101B1F5801F1BD3B1F5001F0CD3490834
:1002A0005FEA30004FEA3C0C04F101044FEA44528B
:1002B00012F5800F80F09A80BCF1004F08BF5FEA12
:1002C000500C50F1000041EB045141EA050130BDF2
:1002D0005FEA4C0C404141EB0101013C28BFB1F504
:1002E000801FE9D291F0000F04BF01460020B1FA4F
:1002F00081F308BF2033A3F10B03B3F120020CDA22
:100300000C3208DD02F1140CC2F10C0201FA0CF0FF
:1003100021FA02F10CE002F11402D8BFC2F1200C64
:1003200001FA02F120FA0CFCDCBF41EA0C0190401A
:10033000E41AA2BF01EB0451294330BD6FEA040463
:100340001F3C1CDA0C340EDC04F11404C4F120024E
:1003500020FA04F001FA02F340EA030021FA04F360
:1003600045EA030130BDC4F10C04C4F1200220FAB7
:1003700002F001FA04F340EA0300294630BD21FAF5
:1003800004F0294630BD94F0000F83F4801306BFBB
:1003900081F480110134013D4EE77FEA645C18BFAF
:1003A0007FEA655C29D094EA050F08BF90EA020F46
:1003B00005D054EA000C04BF1946104630BD91EA3E
:1003C000030F1EBF0021002030BD5FEA545C05D141
:1003D0004000494128BF41F0004130BD14F5800480
:1003E0003CBF01F5801130BD01F0004545F0FE41F4
:1003F00041F470014FF0000030BD7FEA645C1ABF29
:10040000194610467FEA655C1CBF0B46024650EA5F
:10041000013406BF52EA033591EA030F41F400218B
:1004200030BD00BF90F0000F04BF0021704730B511
:100430004FF4806404F132044FF000054FF00001E6
:1004400050E700BF90F0000F04BF0021704730B5A7
:100450004FF4806404F1320410F0004548BF40427C
:100460004FF000013EE700BF42004FEAE2014FEAD1
:1004700031014FEA02701FBF12F07F4393F07F4FAC
:1004800081F06051704732F07F4208BF704793F0AF
:100490007F4F04BF41F40021704730B54FF46074C2
:1004A00001F0004521F000411CE700BF50EA0102C5
:1004B00008BF704730B54FF000050AE050EA01026E
:1004C00008BF704730B511F0004502D5404261EBDE
:1004D00041014FF4806404F132045FEA915C3FF41F
:1004E000D8AE4FF003025FEADC0C18BF03325FEABC
:1004F000DC0C18BF033202EBDC02C2F1200300FA6D
:1005000003FC20FA02F001FA03FE40EA0E0021FA91
:1005100002F11444BDE600BF53B94AB9002908BF2F
:1005200000281CBF4FF0FF314FF0FF3000F06EB9D4
:10053000ADF1080C6DE904CE00F006F8DDF804E03A
:10054000DDE9022304B070472DE9F047089D0E460F
:1005500004468C46002B40F081808A42174645D9DC
:10056000B2FA82F24AB1C2F1200106FA02F320FA8D
:1005700001F1974041EA030C94404FEA174E230CD7
:10058000BCFBFEF6B9B20EFB16CC43EA0C4306FBED
:1005900001F0984209D9FB1806F1FF3C80F0158163
:1005A000984240F21281023E3B441B1AA4B2B3FBB4
:1005B000FEF00EFB103344EA034400FB01F1A142BC
:1005C00009D93C1900F1FF3380F00181A14240F2CA
:1005D000FE8002383C44641A40EA064000211DB106
:1005E000D4400023C5E90043BDE8F08702B9FFDE2F
:1005F000B2FA82F2002A4FD1CB1B4FEA174E1FFAF4
:1006000087F80121B3FBFEFC260C0EFB1C3346EAE7
:10061000034608FB0CF3B34207D9BE190CF1FF30B7
:1006200002D2B34200F2EB808446F61AA3B2B6FBC4
:10063000FEF00EFB106643EA064408FB00F8A045F6
:1006400007D93C1900F1FF3302D2A04500F2D28055
:100650001846A4EB080440EA0C40C0E78B4208D9D6
:10066000002D00F0AF800021C5E900060846BDE876
:10067000F087B3FA83F1002949D1B34202D3824211
:1006800000F2BB80841A66EB030301209C46002D18
:10069000AAD0C5E9004CA7E7C2F120039740D84093
:1006A0009140DE404FEA174E08434FEA104CB6FB2C
:1006B000FEF11FFA87F80EFB11664CEA064601FBB5
:1006C00008F3B34204FA02F409D9BE1901F1FF3C60
:1006D00080F08E80B34240F28B8002393E44F31AA0
:1006E00086B2B3FBFEF00EFB103346EA034600FB76
:1006F00008F3B34207D9BE1900F1FF3C74D2B342EC
:1007000072D902383E44F31A40EA01417AE7C1F156
:10071000200703FA01F422FA07F31C4320FA07F931
:1007200006FA01F34FEA144CFE4049EA03094FEA86
:100730001943B6FBFCFE1FFA84F80CFB1E6643EA65
:1007400006460EFB08FAB24502FA01F200FA01F37E
:1007500008D9A6190EF1FF3048D2B24546D9AEF1FC
:10076000020E2644A6EB0A061FFA89F9B6FBFCF036
:100770000CFB106649EA064600FB08F8B04507D9AD
:10078000A61900F1FF3C2DD2B0452BD902382644E2
:1007900040EA0E40A6EB0806A0FB02894E45C4467F
:1007A000CE4618D315D075B3B3EB0C0266EB0E062C
:1007B00006FA07F722FA01F3CE401F43C5E9007697
:1007C000002111E7294628460EE76646EDE6184661
:1007D00001E74345E7D2B8EB020C69EB04040138AA
:1007E000A646E0E76046D3E760468CE78646B9E771
:1007F000614674E702383C442BE7084647E7ACF112
:10080000020C3E4411E72946EEE600BF704700BFE8
:1008100080B483B000AF78607B6801339B001846DA
:100820000C37BD4680BC704780B582B000AF7860A1
:1008300039607A683B689A4201D1012310E07B68F5
:10084000002B02D03B68002B01D1002308E03B685D
:1008500019683B6804331A46786800F005F80346C7
:1008600018460837BD4680BD80B487B000AFF86039
:10087000B9607A60FB68002B06D1BB68002B0CBF07
:1008800001230023DBB220E0FB681B68BA689A42B0
:1008900001D0002319E000237B6110E0FA687B6936
:1008A0009B0013445A687B699B0079680B441B6862
:1008B0009A4201D0002308E07B6901337B61FB6829
:1008C0001B687A699A42E9DB012318461C37BD464A
:1008D00080BC704780B584B000AF78607868FFF75F
:1008E00097FF0346184617F061FB0346FB60FB6861
:1008F0007A681A60FB6818461037BD4680BD80B51F
:1009000084B000AF78607B68002B01D1002313E036
:100910007B681B681846FFF7DDFFF860FB68002B5B
:1009200009D0FB68181D7B68191D7B681B689B003C
:100930001A4622F06CFCFB6818461037BD4680BD95
:1009400080B582B000AF7860786817F037FB00BFE1
:100950000837BD4680BD80B483B000AF78607B6847
:1009600001339B0018460C37BD4680BC704780B5EC
:1009700084B000AF78607868FFF7EDFF0346184653
:1009800017F014FB0346FB60FB687A681A60FB688B
:1009900018461037BD4680BD80B582B000AF786084
:1009A000786817F00BFB00BF0837BD4680BD80B5E7
:1009B00082B000AF78607B681B7D042B03D07B681E
:1009C0001B7D052B04D17B685B68184617F0F6FA8F
:1009D0007B6800225A6000BF0837BD4680BD80B5E5
:1009E00084B000AF78607B681B78012B1DD17B68D9
:1009F0005B68FB60FB681B68002B07D0FB681B680B
:100A00001846FFF7C9FFFB6800221A60FB685B68A5
:100A1000002B07D0FB685B681846FFF791FFFB6867
:100A200000225A60F86817F0C9FA7B6800225A6001
:100A30007B6800221A7000BF1037BD4680BD90B59C
:100A400089B000AF78607B68002B4BD07B681B6857
:100A5000002B07D07B681B681846FFF771FF7B6887
:100A600000221A607B685B68002B07D07B685B689C
:100A70001846FFF765FF7B6800225A607B689B6819
:100A8000002B2BD00023FB611BE07B689A68FB697D
:100A90001B01134407F10C040FCB84E80F003B7BD0
:100AA000012B0BD17B691846FFF74AFF00237B61BE
:100AB000BB691846FFF744FF0023BB61FB690133A4
:100AC000FB617B68DB68FA699A42DEDB7B689B68C6
:100AD000184617F073FA7B6800229A60786817F05E
:100AE0006DFA00E000BF2437BD4690BD80B582B0EE
:100AF00000AF78607868FFF75AFF7B689B68002B2F
:100B000004D07B689B681846FFF71AFF7B680022B9
:100B10009A607B68DB6B002B04D07B68DB6B18462C
:100B2000FFF70EFF7B680022DA637B6830331846DC
:100B3000FFF755FF7B689B6B1846FFF780FF7B68CC
:100B400000229A6300BF0837BD4680BD82B080B5E1
:100B500084B000AFB9607A60FB610346FB73B86B89
:100B6000FFF7C4FFBB6BFA7B1A70BB6BBA681A62E3
:100B7000BB6B7A689A60BB6B0C3307F11C0292E87E
:100B8000030083E80300BB6B7A6A5A60BB6BBA6AE6
:100B90009A61BB6B97F82C201A75BB6B3A6BDA61C4
:100BA000BB6B97F8342083F82D20BB6B002283F8B1
:100BB0003020BB6B00225A6300BF1037BD46BDE832
:100BC000804002B0704780B582B000AF7860396075
:100BD0003B681B7D042B03D03B681B7D052B1DD17F
:100BE0003B685B68002B07D1786817F0DFF9034694
:100BF0001A463B685A600DE03B689B697A689A42E6
:100C000008D93B685B687968184617F0FBFC024618
:100C10003B685A603B687A689A6100E000BF083719
:100C2000BD4680BD80B483B000AF0346FB71FB7945
:100C30000B2B33D801A252F823F000BF6D0C00003B
:100C4000710C0000790C00007D0C0000850C000088
:100C5000910C0000890C0000750C00008D0C000048
:100C6000810C0000950C0000990C00000E4B16E062
:100C70000E4B14E00E4B12E00E4B10E00E4B0EE04C
:100C80000E4B0CE00E4B0AE00E4B08E00E4B06E05C
:100C90000E4B04E00E4B02E00E4B00E00E4B1846EC
:100CA0000C37BD4680BC7047A03E0200A83E020043
:100CB000B03E0200B83E0200C03E0200C83E020044
:100CC000D03E0200D83E0200E03E0200EC3E0200B0
:100CD000F43E0200FC3E0200043F0200B0B58AB0C0
:100CE00000AF786007F1080320220021184622F0A7
:100CF000B6FA7B681D4607F108040FCC0FC594E8CF
:100D00000F0085E80F0078682837BD46B0BD00BFEA
:100D10004D2809D005D81C3804288CBF002001209C
:100D200070474F380128F8E701207047D0E90523C4
:100D30009A42B8BF03694FF00001B7BF03EB02133B
:100D40000B4601325960B8BF42611846704770B512
:100D50001D464B1E0E4614464F2B37D8DFE803F0D6
:100D60002828282836363636323228323232323285
:100D700032323232323232362A2A2A2A2A2A2A2A8F
:100D800028323232323236322A292836282A2A327A
:100D90002936363232322828282828322828322884
:100DA0003636323232363636323232282A282A2A3B
:100DB00054B15DB1FFF7BAFF10B1C0E9024506704A
:100DC000044601E0002CF5D1204670BD0024FBE76D
:100DD00038B50C461546FFF7A9FF38B1002334B1EA
:100DE0009D4206DDC0E902454360037038BD2046E0
:100DF000FCE71846FAE710B50C46FFF797FF10B16D
:100E000027230370846010BDC3680A4619785229ED
:100E100006D04F290CD1C16A0331C162202103E001
:100E2000C16A0231C1621F210133C36000238EE712
:100E30001046704751B1D0E90832934206DAC269D0
:100E400042F82310013303620120704700207047ED
:100E500038B505460C46002C47D02378013B4F2B74
:100E600043D8DFE803F02D2D2D2842424D4D2D2D86
:100E70002D2D2D2D2D2D2D2D2D2D2D2D2D422D2D8D
:100E80002D2D2D2D2D2D2D2D43432D2D422D2D2D51
:100E90002D4F2D2D2D2D2D424D2D2D2D2D2D2D2D2B
:100EA0002D2D2D2D2D2D42422D4F4F4F4F422D2DAB
:100EB0002D2D2D2D2D2DD5F844310133C5F844317C
:100EC000D5F81C31B3F5006F0FDC0133C5F81C31C8
:100ED000A1682846FFF7BCFFE1682846FFF7B8FF86
:100EE000D5F81C31013BC5F81C3138BDA3681B780F
:100EF000052B02BFD5F838310133C5F83831DFE7AB
:100F0000E468A8E7A468A6E7D0F8001138B5002582
:100F100045540446D0E942329847D4F82831C4F801
:100F200000510133C4F8283138BD38B5D0F800314C
:100F3000FF2B04460D4601D1FFF7E6FFD4F8003140
:100F40005A1CC4F80021E55484F8045138BD70B52A
:100F500006460C468D18AC4200D170BD14F8011B3A
:100F60003046FFF7E2FFF6E7002320B102782F2A90
:100F700001D182680AB918467047C0680133F4E7A6
:100F800013B504460846019104F012FD019902468A
:100F9000204602B0BDE81040D9E710B588B00A4637
:100FA0000446054901A817F05FFB01A92046FFF799
:100FB000E7FF08B010BD00BFAF850200F0B50168C3
:100FC0000B786E2B02BF4B1C03604B7802460CBFA4
:100FD0000125002500206FF000460A24A3F130010E
:100FE000CFB2092F02D905B14042F0BD711AB1FB51
:100FF000F4F1814208DB04FB0033A3F130001368F5
:10100000591C11605B78E9E74FF0FF30EDE738B528
:101010000546FFF78BFE044630B14223037005F10D
:101020000C00FFF7CBFFA060204638BD10B5C368A9
:101030001B785F2B044610D06E2B02D14FF0FF308F
:1010400010BD0C30FFF7BAFF0130F7D4E3681A780F
:101050005F2AF3D10133E360F2E70020F6E738B509
:10106000C3681A78542A044601D0002038BD0133E1
:10107000C360FFF7DBFF051EF7DB2046FFF756FED8
:101080000028F3D0052303708560EFE770B50446B0
:101090000C30FFF793FF051E30DDE66863689B1B8D
:1010A0009D4229DCA26873195207E36004D5725D82
:1010B000242A04BF0133E360092D1ADD10490822F8
:1010C000304622F096F8A0B9337A2E2B03D05F2B4E
:1010D00001D0242B0DD1737A4E2B0AD1E06A094935
:1010E0001630451BE56215222046FFF771FEA0620F
:1010F00070BD2A463146F7E70020F8E70020F7E701
:101100006F8902007889020037B5856A04460A466D
:10111000E3681978422903D01046A56203B030BDB8
:101120000133E36020460192FFF7B0FF019A0346C6
:101130004C212046FFF70BFE0246E9E738B504468E
:1011400039B9C3681A780AB9002038BD5A1CC26080
:10115000197868290BD104F10C00FFF72FFFE36821
:101160001A785F2AF0D10133E3600120EDE7762998
:10117000EAD104F10C052846FFF720FFE3681A784E
:101180005F2AE1D10133E3602846E6E70378722B5A
:1011900012D0562B10D04B2B0ED0442B0AD14078B6
:1011A00000F0DF034F2B07D0773801288CBF0020D9
:1011B00001207047002070470120704703685A786B
:1011C000632A0AD11878A0F16303012B07D972387A
:1011D00001288CBF002001207047002070470120AB
:1011E000704738B5C3681A785F2A044601D00120D9
:1011F00038BD5A1CC2605A785F2A04BF0233C360EC
:1012000000F10C000CBF02250125FFF7D7FE0028D6
:101210000ADB022DEBD10928E9DDE3681A785F2AA1
:1012200002D10133E360E2E70020E1E700B9704753
:1012300003782F2B07D1002904DDC0680139F5E7B9
:1012400080687047FCD0002070472DE9F0411446BB
:101250005268A5684B1C1344AB4280460F461AD90E
:10126000E26892B9002D08BF0225AB420FD8206872
:10127000294617F0C7F9064658B9206816F09EFEB1
:10128000C4E900660123A660E360BDE8F0816D005B
:10129000EBE72060A560E568002DF6D1D4E90003F6
:1012A0003A464146184421F0B2FFD4E900323B44AB
:1012B0009D54616839446160E7E70346D0F8100146
:1012C00018B90122C3F8182170470968436800293A
:1012D000D86800DBAAE770472DE9F041264FDFF818
:1012E0009C8005460C4601266CB12378082B14D946
:1012F0002C2B29D8172B2BD9183BDBB206FA03F37A
:1013000013EA080F24D0002033E006FA03F33B422F
:10131000F9D19B071CD5E468E6E7082B18D801A291
:1013200052F823F00713000051130000511300007E
:1013300051130000511300005F1300000713000059
:101340001713000017130000323BDBB21A2BDCD955
:10135000A1682846FFF7C0FF0028DCD009E004F1AF
:1013600008012846FFF7A9FF0028CCD003782F2BCF
:10137000C9D1BDE8F08100BF018071060180100075
:101380002DE9F041C2681378532B04464DD1531C0C
:10139000C360537863B1931CC36053785F2B70D0E4
:1013A000A3F13002092A60D9A3F14102192A5CD9BC
:1013B000A26802F00802002A14BF0126002606D106
:1013C00029B1E2681278433A012A98BF0E46324D9D
:1013D00007222978994259D16F6957B12046D5F82B
:1013E0001880FFF7A3FC18B1C0E902781823037036
:1013F000A062002E47D0D5E90365E36A2B44E3627F
:101400002046FFF793FC014618B1C0E90265182396
:101410000370E3681B78422B24D12046FFF774FE4B
:1014200001462046FFF706FDE0B900211AE011460B
:10143000A3F13002092A1BD800FB0133A3F13002CB
:101440009142F2D8E1680B78002BF0D04B1CE3609E
:101450000B785F2BEBD10132236A9342E5D9E36924
:1014600053F822100846BDE8F08100212420DFE770
:10147000A3F14102192AD8D800FB0133A3F13702A6
:10148000DEE70022E8E7D5E90165B6E7013A05F1B4
:101490001C059ED1C9E700BF143F020070B5C368A8
:1014A0001A784C2A044601D0002070BD5A1CC26034
:1014B0005A785F2A29D05A2A29D000F02BFA0546FB
:1014C0000028F1D00378272B06D18268137C1BB14A
:1014D000E36A52689B1AE362E3681A786E2A04BFD3
:1014E0000133E360E1680CBF3E263D26E2681378D5
:1014F000452B1DD1521A2046FFF76AFC2A460346A7
:1015000031462046FFF723FC0BE00233C360E3685B
:101510001A785A2A11D10133E3600021204601F0E4
:1015200011F9E3681A78452ABED10133E360BCE7BC
:10153000002BB9D00132E260D8E70020F1E7F7B51F
:10154000C3681A784C2A044603D103B0BDE8F040C2
:10155000A4E7542A03D103B0BDE8F0407FE5732A25
:101560002DD15A78722A20D10233C36000F0D2F90B
:101570000546204600F09FFEE3681B78492B08D003
:1015800003462A460121204603B0BDE8F040FFF79C
:10159000DEBB0190204600F0F4FC019A03460421D2
:1015A0002046FFF7D4FB0346EBE7702A62D10233F3
:1015B000C360FFF7C4FF002302464B21E3E7662A1E
:1015C0001FD15A78702A55D19A1CC2609A78542A31
:1015D0000DD10333C36000262046FFF7A7FB054665
:1015E00010B1062303708660284603B0F0BDFFF7F4
:1015F0001DFDC34333F0004301D10025F4E7461C31
:10160000EAE7A2F13001092906D96F2A15D15A78E3
:101610006E2A2FD10233C360204600F04CFE0546EF
:101620000028EAD0E3681B78492BDDD1204600F082
:10163000A8FC2A4603460421A5E7692A01D0742A9A
:1016400018D159786C2915D10233742AE3600FD16F
:10165000204600F05FF90546E3685B78002BCCD0AC
:101660004521204600F029F92A46034631218AE720
:101670000025F1E7204600F08EFC05460028BCD08E
:101680000378322B13D1836881499A681E68E36A14
:10169000023A1344E362304604F080F9AB68C8B9FB
:1016A000204600F037F903462A4637216BE7342BF2
:1016B0003BD0A2D8332BA0D18368032B9DD801A2A5
:1016C00052F823F0E316000041170000FB1500005C
:1016D000FB150000DF68032F8FD8DFE807F0020654
:1016E000367C00232A4636214DE73378702B01D013
:1016F0006D2B08D172789A4205D1E3681A785F2A77
:1017000002D10133E36000276249304604F046F914
:10171000B8B9204600F006FC002FC4D003460246AC
:1017200039212046FFF713FBBDE7E3681A785F2AEB
:1017300006D10133E3604521204600F0BEF8B2E750
:1017400000272046FFF7FBFEE6E7A868FFF736FD17
:10175000B8B1204600F0DEF807464F49304604F0A5
:101760001DF9C0B94521204600F0A7F806463346CA
:101770003A4639212046FFF7EAFA2A46034638213D
:1017800001E73378662B204602D100F004FCE3E742
:10179000FFF7D5FEE0E74149304604F0FFF820B1FD
:1017A0003F49304604F0FAF888B9204600F083FD3E
:1017B000E3681B78492B0646D9D1204600F0E1FBAF
:1017C0003246034604212046FFF7C1FACEE7204601
:1017D000FFF7B5FECAE73349304604F0DFF8E8B951
:1017E0002046FFF7ACFE06462046FFF7A8FE074658
:1017F0002046FFF7A4FE00283FF4FFAE03463A461A
:101800003C212046FFF7A3FA324603463B212046FF
:10181000FFF79DFA2A4603463A21B4E63378662B51
:1018200003D1204600F0B7FBDDE76E2B7FF4E5AE79
:101830007378772B02D0612B7FF4DFAE5F212046D7
:1018400000F03BF80646204600F064F8E3681A789A
:10185000452A074603D10133E3600020CEE7702A12
:101860000AD15A78692A7FF4C8AE0233E360452171
:10187000204600F022F8C1E7692A7FF4BEAE5B780B
:101880006C2B7FF4BAAE2046FFF759FEB6E700BFD7
:10189000138E0200978902008E890200918902004E
:1018A000318C02009489020038B504460123056B8F
:1018B0000363FFF744FE256338BD73B5C2680D4668
:1018C00011780023A9420446019308D10132C26075
:1018D0002E211A4602B0BDE87040FFF738BA01AEBB
:1018E0002046FFF7E1FF024610B9002002B070BDAC
:1018F00000232E212046FFF72AFA30600028F4D07A
:10190000E3681A78AA4200F10C06E9D10133019884
:10191000E360EBE72DE9FF41C26804461046FFF79C
:1019200035FC50B3002203A9204600F0D9FB054640
:1019300018B9002004B0BDE8F081E3681B78462B9D
:10194000204617D100F088FC28602B68002BF0D0CF
:101950001A781F3A012A05D803999A6899602B686A
:1019600003932A6003992046FFF764FA002840F0A9
:10197000B480DEE7FFF7CEFFE6E71178A1F1300390
:101980004A2BD6D801A050F823F000BF011B00005D
:10199000011B0000011B0000011B0000011B0000D7
:1019A000011B0000011B0000011B0000011B0000C7
:1019B000011B000033190000331900003319000027
:1019C00033190000331900003319000033190000E7
:1019D000091B0000331900006F1C0000CB1C000025
:1019E00033190000F71A0000811C000033190000B1
:1019F00033190000331900003319000033190000B7
:101A00005B1B0000011B0000391C00004B1C000088
:101A1000331900005D1C0000EB1B00007D1B000063
:101A2000931C000033190000331900003319000023
:101A300033190000011B00003319000033190000A6
:101A40003319000033190000331900003319000066
:101A5000B91A0000B91A0000B91A0000B91A00003A
:101A6000B91A0000B91A0000B91A0000B91A00002A
:101A7000B91A0000B91A000033190000B91A0000A1
:101A8000B91A0000B91A0000B91A00003319000091
:101A90003319000033190000B91A0000B91A000008
:101AA000DF1A0000B91A0000B91A0000B91A0000C4
:101AB000B91A0000B91A0000BF4B1422613902FBA9
:101AC00001312046FFF797F98268E36A5268039074
:101AD0001344E362E3680133E36003982AE70132C9
:101AE000E2602046FFF7D2FA002302462821204672
:101AF000FFF72DF902E0204600F0AEFB039031E73E
:101B0000204600F0DBFCF9E7511CE16053785F2BC5
:101B100015D0303B092B0ED8E3685A1CE2605B7885
:101B2000303B092BF8D9521A2046FFF751F90546E8
:101B300030B90020E2E72046FFF7B6FEF7E70025C0
:101B4000E3681A785F2AF4D10133E3602046FFF797
:101B5000E1FE2A4603462A21C9E70132E260204617
:101B6000FFF7D8FE05460028E3D02046FFF7D2FE57
:101B700003460028DDD02A462B21B8E72046FFF790
:101B80006EFAE56803902B78492B01467FF4EAAEA4
:101B9000636B73B92046FFF74DF900283FF4C9AED7
:101BA000039A0192204600F0ECF9019A03460421C1
:101BB0009DE72046D4F81480276AE66A00F0E1F930
:101BC000E2681278492A0AD1019003992046FFF76A
:101BD00031F9019B00283FF4ADAE039AE7E7E560D9
:101BE000C4F814802762E662BCE65378A3F13002A1
:101BF000092A04D95F2B02D0413B192B10D80021B0
:101C00002046FFF7BDFBE36803901B78492B054690
:101C10007FF463AF204600F0B4F92A460346C6E7D6
:101C2000204600F04BFC039000283FF49BAE037865
:101C3000182B7FF497AE50E70132E2602046FFF7A1
:101C400069FE00230246242151E70132E26020466A
:101C5000FFF760FE00230246222148E70132E260DE
:101C60002046FFF757FE0023024623213FE70132BB
:101C7000E2602046FFF74EFE00230246252136E7AC
:101C80000132E2602046FFF745FE0023024626218E
:101C90002DE70132E2602046FFF7F8F9E368039090
:101CA0001B78492B054609D1204600F06AF92A46DF
:101CB000034604212046FFF74AF803902046FFF729
:101CC00029FE039B0246212111E7531CE360537850
:101CD000002B3FF42EAE931CE3605378462B00F0AC
:101CE0009580543BD9B222293FF623AE222B3FF6F2
:101CF00020AE01A151F823F0851D0000331900002A
:101D000033190000331900003319000033190000A3
:101D10003319000033190000331900003319000093
:101D2000331900003319000033190000CB1D0000E7
:101D300033190000D91D0000F51D0000F91D000039
:101D4000DF1D000033190000FD1D0000091E00000A
:101D50003319000033190000331900003319000053
:101D6000AF1E000033190000BD1D00003319000034
:101D700033190000051E0000851D0000011E000033
:101D80006B1E00002046FFF78FFD00230246432113
:101D90002046FEF7DCFF039000283FF4E3ADE36844
:101DA0001A7812B900230393DCE55A1CE2601B7811
:101DB000452BF7D1D6E500BFD83F02002046FFF7FC
:101DC000A9FD002302464B2191E63A490422204610
:101DD000FEF7FEFF039080E637490E22F7E737490A
:101DE0002046FFF708F803908268E36A52681344BC
:101DF000E36272E63249F3E73249F1E73249EFE74D
:101E00003249EDE73249EBE73249E9E72046FEF790
:101E10008DFF2C2303900370E3681B78303BDBB20B
:101E2000092B94BF01230023838103D804F10C0004
:101E3000FFF7C4F82046039DFFF76CFD039BA860E5
:101E40009B68002B3FF475AD04F10C00FFF7B6F86A
:101E5000E268137813B1531CE3601378A3F17302A3
:101E600053425341039AD38137E693785F2B18D1BD
:101E70000332E2602046FFF717FD054678B1E368BC
:101E80001A785F2A11D10133E3602046FFF742FD43
:101E90002A4603462D212046FEF759FF05460395A5
:101EA00060E52046FFF7B3F8E7E70025F7E70A49C2
:101EB00096E700BF9A8902009F890200E041020074
:101EC000F4410200084202001C42020030420200BB
:101ED00044420200584202006C42020010B5C2683F
:101EE00013784C2B044614D006D8493B012B14D947
:101EF0002046BDE810400DE5582BF9D10132C260F3
:101F0000FFF7D2FCE3681A78452A09D10133E36070
:101F100010BDBDE81040FFF7C1BABDE8104030E089
:101F20000020F5E773B5C368856A1A78452A044628
:101F300009D10133C36000231A462F2102B0BDE846
:101F40007040FEF704BF0023019301AE2046FFF767
:101F5000C5FF024610B9002002B070BD00232F213A
:101F60002046FEF7F4FE30600028F4D0E3681A78CB
:101F7000452A00F10C06E9D101330198E360A5621E
:101F8000EAE7C26811784939012902D80132C260F2
:101F9000C8E7002070472DE9F041C3681A7804466D
:101FA00012B15A1CC2601A78E3681978002935D03A
:101FB000591CE160762A197817D1A1F13006F3B2E5
:101FC000092B2BD82046FFF761F805462046FEF77F
:101FD000ADFE002846D0002D44D00023C0E90265A4
:101FE000436033230370BDE8F081632A16D176295C
:101FF00014D1D4E90C35B3FA83F35B09636320464B
:10200000FFF788FC636B024633B10023352120467D
:10201000FEF79DFE6563E6E73421F8E7124E43259F
:1020200000202B1A03EBD37300EB63031F0106EBB5
:102030000318F75997F800C094450ED17F788F4266
:102040000BD12046FEF772FE0028CCD0322303705D
:10205000C0F80880C7E71D46E3E79CBF581C2B4625
:102060009842F8D10020BEE78042020037B5002335
:102070000446019301ADE2681378EBB1452B1BD008
:102080002E2B19D0522B01D04F2B02D15378452B38
:1020900012D02046FFF73EFC024610B9002003B0E4
:1020A00030BD00232E212046FEF751FE2860002877
:1020B000F4D000F10C05DEE701980028EED0C268EC
:1020C000002AECD1836819782729E8D199680B7C1C
:1020D000092BE4D1E36A49685B1AE3628260DEE7B8
:1020E0002DE9F84FC368171E0D461978044615BF31
:1020F0004FF01E0A4FF01B0A4FF01D094FF01A094E
:1021000014BF4FF01C084FF019082E46E268104625
:10211000FFF73CF8A0B9002F39D1462937D11D204F
:102120001E241C27AE4232D02B681A781A2A70D08F
:102130001B2A70D0192A00D11F702D680835F1E7CD
:10214000531C7229E36011D1E36A0933E362C34689
:1021500000200346002259462046FEF7F8FD306075
:10216000A0B1E36800F108061978CFE7562904D139
:10217000E36A0933E362CB46EAE74B2904D1E36A19
:102180000633E362D346E3E753781BB900263046B3
:10219000BDE8F88F931CE36092F801B0BBF1780FB3
:1021A00006D1E36A1133E36200204FF04D0BD0E714
:1021B000BBF16F0F02D0BBF14F0F12D1E36ABBF13D
:1021C0004F0F03F10903E3621FD12046FFF76CFBB9
:1021D0000028DBD0E3681A78452AD7D10133E360C1
:1021E000B7E7BBF1770FD1D1E36A0633E36220464C
:1021F000FFF73CFF0028C9D0E3681A78452AC5D10B
:102200000133E3604FF0500BA3E700204FF04F0B7A
:102210009FE7187091E71C708FE770B5C3681A7854
:102220004A2A054608D10133C3602846FFF772FBEE
:10223000044620B9002070BD0029F6D10C4628467E
:10224000FFF714FF03460028F4D022462846292130
:10225000BDE87040FEF77BBD10B50446806810F401
:10226000802005D1A36BB3F5006F0DD80133A363B4
:10227000E3681A78462A08D00020A3685B035EBF93
:10228000A36B03F1FF33A36310BD5A1CE2605A78BD
:10229000592A04BF0233E36001212046FFF7BDFF46
:1022A00001462046FEF7B0FDE3681A78452AE3D1DF
:1022B0000133E360E1E7F8B5C3681A78A2F13001B1
:1022C000092905460DD8FEF7E1FE0446EB681B78A8
:1022D000422B40F0A08021462846BDE8F840FEF79A
:1022E00013BFA2F16101192924D86F2A04D15A78A9
:1022F0006E2A04BF0233C3602846FFF74CFE044633
:1023000060B30378322BE1D18268EB6A9168106880
:1023100007330B44EB62684903F040FB0028D5D13A
:102320002846FEF7B3FE2246034637212846FEF72D
:102330000EFDCAE7A2F14301012963D8866A46B1BE
:10234000327822B9EA6AF1680A44EA6201E0182A9E
:10235000F8D01A78432A03D0442A26D00024B5E7BF
:102360005A78492A04BF0133EB60EB685E78A6F126
:1023700031010CBF012200220429EFD80233EB60A7
:1023800012B12846FFF7C6FA2846AF6AFEF7CEFC20
:1023900004460028E2D0002FE0D000234360303E06
:1023A000072303700672C76090E75A78303A052A0F
:1023B000D4D801A151F822F001240000D12300005B
:1023C000F52300005D230000F9230000FD23000039
:1023D00002270233EB602846FEF7A8FC04460028DB
:1023E000BCD0002EBAD000234360082303700772CC
:1023F000C6606BE70327ECE70427EAE70527E8E771
:102400000127E6E74C2A0FD10133C360FEF73EFEF9
:10241000044610B900242046F8BD2846FEF7E1FE28
:1024200000287FF453AFF5E7552AF3D15A786C2A88
:1024300015D0742AEED15A1CC2605A78742A8DD1F4
:102440000233C360FEF7F2FD061E87DB2846FEF767
:102450006DFC044638B348230370866023E05A1CA1
:10246000C2605A786C2A7FF479AF0233C360FFF7F9
:10247000FDFD074600283FF471AFEB681A78452A46
:102480007FF46CAF0133EB602846FEF7CFFD061EEC
:10249000FFF664AF2846FEF749FC044618B1C0E9D0
:1024A00002764623037021462846FEF7C3FC002827
:1024B0007FF40CAF52E700BFAE8902002DE9FF4761
:1024C000C3681A78552A044600F0068115D84E2AAA
:1024D00041D0532A00F004812046FFF7ECFEE36868
:1024E0001B78492B054640F0C68029462046FEF75A
:1024F000A1FC002840F0038135E05A2AECD10133D9
:10250000C360002100F01EF9054660B3E3681A7845
:10251000452A28D15A1CE2605A78732A40F0AF80CD
:102520000233E3602046FEF75CFEE0B182490E22F2
:102530002046FEF74DFC03462A78032A05D1EA68B7
:102540001178292904BF002191602A4602212046E2
:10255000FEF7FDFBC2E00133C360012203A9FFF7D0
:10256000BFFD074608B9002585E000212046FEF79B
:102570004BFCDFF8CC9180464FF0000AE3681E78F0
:1025800016B900233B60EEE7442E18D15B7803F0C8
:10259000DF03542B20460FD1FFF7BCF90546BAF1F3
:1025A000000F1ED1E3681B78452B3DD029462046FD
:1025B000FEF740FCC0BBE4E7FFF77DFEEEE7A6F1C7
:1025C0003002D2B21C2A0ED9A6F16102192A01D911
:1025D000552E1FD12046FFF76EFE0546BAF1000FBB
:1025E00015D001210DE029FA02F2D207F2D4492ECA
:1025F0001CD1BAF1000FC4D02046FFF7C2FC042161
:1026000005462B4652462046FEF7A1FB0546532EB3
:10261000C8D109E0532EEAD101212046FEF7B0FED1
:102620000546BAF1000FDCD1AA46A7E7542E03D124
:102630002046FEF714FDB1E7452E08D04D2EA0D15F
:10264000BAF1000F9DD00133E3605546ECE7C7F8BF
:1026500000A0BAF1000F86D0B8F1000F04D0039AA1
:10266000C8F80820CDF80C801A78452A7FF47BAF93
:102670000133039DE360284604B0BDE8F087642A77
:1026800010D10233E3602046FEF7D0FC071EFFF6B0
:102690006AAF2046FFF712FF064630B97B1C0FD108
:1026A000334649E74FF0FF37F3E70378462BF5D081
:1026B000482BF3D02046FEF794FD0028EED152E7D8
:1026C0002046FEF733FB034600283FF435AF472290
:1026D000C0E9026702702FE7FFF7EDFD0546CAE784
:1026E0005A78742A12D00021FEF74AFE01230546CB
:1026F000E2681278492ABED1002B3FF4F6AE20469C
:10270000FFF73FFC2A460346042120E702330B492A
:10271000C3600322FEF75CFB01902046FFF7CBFD70
:10272000019A034601212046FEF711FBE36A0333B9
:10273000E36205460023DBE7B1890200C08902009D
:10274000FF0308102DE9F743C3681A78472A0446A7
:102750000E4602D0542A40F08D81E26A02F1140143
:10276000E1621978542908D1591CE160597819BBE4
:102770000025284603B0BDE8F0834729F8D15A1C4C
:10278000E2605A78002AF3D09A1CE2605A78542A00
:1027900000F03F8100F2E680412A00F03281522AA7
:1027A000E6D12046FFF78AFE01902046FEF72FFC77
:1027B000019A034616215DE0991CE160597857297A
:1027C00036D84029D4D941391629D1D801A353F894
:1027D00021F000BF5729000071270000E728000002
:1027E00071270000712700001F29000071270000D9
:1027F0003B290000932800002D29000071270000CC
:102800007127000071270000712700007127000068
:10281000712700007127000071270000A128000027
:102820008128000071270000652800004929000068
:1028300068293CD0762948D0632999D100212046C7
:10284000FEF77CFC002893D000212046FEF776FCA2
:1028500000288DD000212046FFF774FF0023024698
:10286000112107E00F32E2622046FFF753F8002300
:1028700002460921204603B0BDE8F043FEF767BADF
:102880000A32E2622046FFF745F8002302460A2199
:10289000F0E72046FFF73EF8002302460C21E9E767
:1028A0002046FFF737F8002302460D21E2E72046D5
:1028B000FEF744FC00283FF45BAF00212046FFF701
:1028C00041FF002302460F21D4E72046FEF736FCE5
:1028D00000283FF44DAF00212046FFF733FF0023CF
:1028E00002461021C6E72046FFF714F8054604F11A
:1028F0000C00FEF763FB0028FFF63AAFE26813789E
:102900005F2B7FF435AF0132E2602046FFF702F81B
:10291000E36A0533E36202462B460B21AAE7204611
:10292000FEF7F8FF002302460E21A3E72046FEF73C
:10293000F1FF0023024612219CE72046FFF7BEFD6F
:1029400000230246142195E72046FFF7B7FD002338
:10295000024615218EE72046FFF7C0FA0023024603
:10296000302187E7562A45D0722A7FF401AF04F15F
:102970000C00FEF723FB01287FF7FAAEE3681A7814
:10298000002A3FF4F5AE5D1CE5601B785F2B7FF4F9
:10299000EFAE461E4FF0000841272B78002B3FF486
:1029A000E7AE242B50D16D78532D49D05F2D49D0FF
:1029B000242D7FF4DDAE2046FEF7B8F908B107708C
:1029C0008560E5680235E560023E00283FF4D0AE40
:1029D000B8F1000F08D00346424640212046FEF7DA
:1029E000B6F900283FF4C4AE002E27DC00230246CF
:1029F0003F213FE72046FFF761FD002302461321F8
:102A000038E700212046FFF79DFE002302461721EC
:102A100030E79A780021204652B1DA1CE2609B78B8
:102A20006E2B05D1FFF78EFE002302464A2121E7D7
:102A3000FFF788FE0023024649211BE78046ACE7EA
:102A40002F25B8E72E25B6E74FF0000915F8093015
:102A50002BB1242B03D009F10109B145F6DB29463E
:102A60004A462046FEF7B4F9E5684D44E560A6EB1A
:102A70000906AAE7FFF722FD054600283FF478AED5
:102A800016B1A368D90711D5E3681B78002B3FF472
:102A900070AE452B3FF46DAE29460A78042A38D033
:102AA00017D8022A20D0002121E0AD682B781846E3
:102AB000FEF72EF90028F8D1022B7FF45AAEEB680E
:102AC0001878FEF725F900283FF453AE9B68EB60B9
:102AD000F5E74D2A03D004D81C3A042AE3D88968C4
:102AE00003E04F3A012AF9E7C9680029D5D1204609
:102AF000FFF793FB00283FF43BAE36B92B78022B4F
:102B000003D10378292B08BF866003462A46032198
:102B1000B0E68B686BB11978082906D806290DD85C
:102B20000139012908D9002303E0A1F135025342FC
:102B3000534183F00101DAE7DB68EBE70123F8E7B3
:102B40002DE9F04F044697B00E4615463AB152684B
:102B5000012A04DCD0F81C31B3F5806F05DD0123B8
:102B6000C4F8183117B0BDE8F08F01326A60013344
:102B7000D0F81881C0F81C3102A9D0F82C31029588
:102B80000393C0F82C11B8F1000F5DD12B78502BB6
:102B900000F23486DFE813F05100B600B600DD0025
:102BA0002001670181079E01A301AC01B501BE01AF
:102BB000D001D901E201EB01F401FD0106020F028F
:102BC00018022102560268028302880288028802E3
:102BD0003E033E033E033E033E033E033E03C60266
:102BE000C6023E033E0343034D0352038F03F20329
:102BF0000D04F2032D042D04950159046E048A047A
:102C000032069404DE04E4049C05320637063206DC
:102C100032068E068E0615071F072A07100748077B
:102C200095079F07A9073206CA0771027A0256075D
:102C3000A4003E03D8073E033E037607AF680FD4D7
:102C4000EA683946FEF783F9039BC4F82C316B68B8
:102C5000013B6B60D4F81C31013BC4F81C3181E7A7
:102C6000EB6807EB0308B845EED9A8EB0703032B85
:102C700039780CDD5F290AD17B785F2B07D1BB78CF
:102C8000552B04D1FE1C0020B045B14604D8204687
:102C9000FEF74BF9B94620E016F8013BA3F13002EC
:102CA0005FFA82FCBCF1090F03D8134603EB001056
:102CB000EAE7A3F14102052A01D8373BF6E7A3F181
:102CC0006102052A01D8573BF0E75F2BDFD1FF28CF
:102CD000DDD8C1B22046FEF728F909F10107C2E7A5
:102CE000AA683146FFF72CFF2046C049FEF748F995
:102CF00031462046EA68FFF723FF5D212046FEF7B4
:102D000014F9A1E7AA683146FFF71AFF70071BD430
:102D1000B7492046FEF734F9EF683B78472B0DD1D1
:102D2000B4492046FEF72CF9F96820460131FEF738
:102D300034F9B1492046FEF723F9BF683A463146D7
:102D40002046FFF7FDFE7FE72E212046FEF7EDF837
:102D5000E2E7D0F814310193002206ABAF68C0F867
:102D6000142190469946114617B1B8F1040F03D1CA
:102D70000123C4F8183167E7C3E90171D4F81421BD
:102D8000D4F810A11A60C4F81431C3F80CA03A7832
:102D90001046FDF7BDFF08F101081033002800F0D0
:102DA000E686BF68E0E7B8F1040F09F1100CDFD048
:102DB000A9F1100E9EE80F0089E80F004CF810EC06
:102DC00049E9037BC4F8149149F804ACBF6808F1E1
:102DD0000108E14600F0D9BE00237107D0F8488110
:102DE000D0F81491AF68C0F84851C0F8143117D525
:102DF0003B78ABB9FA68062A12D18049B86820F04E
:102E000024FB68B931462046EA68FFF799FE7C4901
:102E10002046FEF7B5F8C4F81491C4F8488113E7CA
:102E20003A4631462046FFF78BFE94F804313C2B9E
:102E300003D120212046FEF778F83C212046FEF7FA
:102E400074F8EA6831462046FFF77AFE94F80431B8
:102E50003E2B03D120212046FEF767F83E21204675
:102E6000FEF763F8D7E7D0F820314BB1654905226A
:102E7000FEF76DF8A96820460131FEF78EF8E3E60B
:102E800005F10801FEF719FA024650B103782F2B1D
:102E90000BD1D4F82411002907DBFEF7C7F902464D
:102EA00018B90123C4F81831CEE6D4F810713B6884
:102EB000C4F8103131462046FFF742FEC4F81071C5
:102EC000C2E65149FEF75CF8AA6831462046FFF792
:102ED00037FEB9E6EA683146FFF732FEB4E67E21F6
:102EE000FEF723F8EA6831462046FFF729FEABE6F5
:102EF0004649FEF745F8AA6831462046FFF720FE0E
:102F0000A2E64349FEF73CF8AA6831462046FFF79F
:102F100017FE99E63F49FEF733F8AA683146204686
:102F2000FFF70EFE20463C49FEF72AF8EA683146D4
:102F30002046FFF705FE87E63849FEF721F8AA6824
:102F400031462046FFF7FCFD7EE63549FEF718F8CE
:102F5000AA6831462046FFF7F3FD75E63149FEF7D2
:102F60000FF8AA6831462046FFF7EAFD6CE62E49C5
:102F7000FEF706F8AA6831462046FFF7E1FD63E652
:102F80002A49FDF7FDFFAA6831462046FFF7D8FD24
:102F90005AE62749FDF7F4FFAA6831462046FFF7B5
:102FA000CFFD51E62349FDF7EBFFAA6831462046E5
:102FB000FFF7C6FD48E62049FDF7E2FFAA68314663
:102FC0002046FFF7BDFD3FE61C49FDF7D9FFAA6883
:102FD00031462046FFF7B4FD36E61949FDF7D0FF2C
:102FE000AA6831462046FFF7ABFD2DE6C4890200F2
:102FF000D9890200CA890200D8890200DC8902004E
:10300000878E0200E3890200E98902001E8A02001D
:10301000088A0200118A02002A8A02002F8A02000E
:103020003D8A0200508A0200618A0200658A02001D
:10303000778A0200928A0200A28A0200B68A0200FF
:10304000CD8A0200B849FDF79BFFEA683146204669
:10305000FFF776FD2046B549FDF792FFAA68314695
:103060002046FFF76DFDEFE5B149FDF789FFAA683E
:1030700031462046FFF764FDE6E5AE49FDF780FFE7
:10308000AA6831462046FFF75BFDDDE5AA49FDF75A
:1030900077FFAA6831462046FFF752FDD4E5D5E90F
:1030A0000212FDF754FFCFE5D0F8142122BB904661
:1030B0002F46D4F81431069306ABC4F8143100231C
:1030C0000893D4F810310797099302B9BA683146CA
:1030D0002046FFF735FD089B23B93A463146204686
:1030E00000F0A0FD069BC4F81431B8F1000F3FF4C6
:1030F000ABADC4F81091A7E5D2F80880B8F1000F85
:103100000ED151680978A1F11900022800F28480DB
:103110008B4205D1AA6831462046FFF711FD93E5A1
:103120001268C3E7D0F82081AF68B8F1000F65D10D
:103130003B78052B64D1D0F8343142469A4207DB04
:10314000D4F8382193420DDB0123C4F818317BE514
:10315000D4F8300100EBC20C50F83200874239D06D
:103160000132EBE7D4F83011581C01EBC302C4F86C
:10317000340141F83370131DD4F81021CAB91A6014
:1031800007F108012046FEF798F8074650B103788A
:103190002F2B35D1D4F82411002931DBFEF746F866
:1031A000074668BBB8F1000F3FF47BAEC4F810913E
:1031B00077E6D4E950108142C6DAD4F83C0100EB3E
:1031C000C1000131C4F840115168416018601268B3
:1031D0000346D3E70B461A689742D1D0954201D1F6
:1031E0008B42CDD15B68002BF5D1DCF80430D4F8EC
:1031F0001091C4F810314FF00108C1E74FF00008FA
:103200003B78232B09D02A789A4206D0242B03D16D
:10321000BA684DE74FF000082F46002249E7AB6837
:10322000720754BFD3E90012D3E90212FDF78FFEF3
:103230000AE5AA683146FFF783FC05E516F020078A
:1032400007D0D0F8143105F10C0226F0600100F02F
:1032500083FDAA685AB326F060011FB12046FFF72C
:103260006FFCF1E4730618D4D4F81431069306AB5E
:10327000C4F814312046D4F810310993CDE907572A
:10328000FFF75EFC069BC4F81431089B002B7FF40B
:10329000DBAC20212046FDF748FED4F8143105F1BF
:1032A0000C0226F06001204600F056FDCCE4002F11
:1032B0007FF4CAACF1E7D0F81491CDF81890002350
:1032C0000DF1180808930127D0F81031C0F81481C7
:1032D00007950993CC46BA46BCF1000F05D0DCF83F
:1032E00004301B78193B022B15D9EA683146204679
:1032F000FFF726FC089BC4F81491002B7FF4A4ACC4
:10330000012F32D1D4F8143105F10802314620469C
:1033100000F0F6FD98E4DCF808301BBB032F0DD954
:103320000123C4F818318FE4E78A02000B8A0200F7
:10333000FD8A0200138B02000F8B020016AB03EB19
:10334000071B9CE80F00ABF1400E8EE80F00D4F88D
:1033500014314BF8403C08EB0713C4F81431013723
:10336000CCF808A0DCF800C0B6E7013F08EB071373
:1033700031465A68204600F055FCC1E7D0F81431B8
:10338000069306ABC0F8143100230893EA68D0F81E
:103390001031099331460795FFF7D2FB089B23B9FB
:1033A0002A463146204600F03DFC069BC4F8143105
:1033B0004AE4B5F90E3013B1B949FDF7E1FDAA6849
:1033C000B84B9168994207D031462046FFF7B8FBC9
:1033D00020212046FDF7A9FDB5F90C3023B1B249F3
:1033E0002046FDF7CDFD2FE4B0492046FDF7C8FD8E
:1033F0002AE4AA6812B13146FFF7A2FBEB68002B62
:103400003FF422ACD4F80031FD2B02D92046FDF761
:103410007BFDA7492046FDF7B3FDEA68D4F8288173
:10342000D4F8007131462046FFF78AFBD4F82831E2
:1034300098457FF409ACD4F800319F427FF404AC86
:10344000023FC4F80071FFF7FFBBD5E9022712B1B4
:103450003146FFF775FB20467B21FDF766FD3146BF
:1034600020463A46FFF76CFB7D212046FDF75DFDC7
:10347000FFF7EABBAF688F49BE68FDF781FD7B6847
:103480001B78613B192B03D820212046FDF74DFD09
:1034900079688B19204613F8013C202B08BF06F1F0
:1034A000FF363246FDF753FDFFF7CEBB8249FDF7ED
:1034B00067FDEA6831462046FFF742FBFFF7C4BBD1
:1034C0007D49FDF75DFDD4F8483133B1D4F81021C2
:1034D000069206AAC4F810210793AA681378042B51
:1034E0000DD031462046FFF72BFBD4F84831002B96
:1034F0003FF4AAAB069BC4F81031FFF7A5BB926856
:1035000031462046FFF71CFBD4F8483113B1069B27
:10351000C4F8103194F804313C2B03D1202120460B
:10352000FDF703FD3C212046FDF7FFFCAB6831466B
:10353000DA682046FFF704FB94F804313E2B03D1F0
:1035400020212046FDF7F1FC3E212046FDF7EDFC51
:10355000FFF77ABBAA68314600F016FDFFF774BB8F
:10356000D5E902A79AF80030322B34D1DAF80830C6
:103570005249D3F80090484602F010FA58B93B7807
:10358000032B08D1BB681A78012A04D1FA68127893
:10359000292A08BF1F463B78392B0BD1BA68314620
:1035A000204600F000FD52463146204600F0ECFC7B
:1035B000FFF74ABB4249484602F0F0F9F0B93946F4
:1035C0002046FDF789FEFDF7CFFC01462046FDF7BA
:1035D000E4FCFFF739BB342B32D04FF000095246E0
:1035E0003146204600F0D0FCB9F1000F36D13A4602
:1035F0003146204600F0D7FCFFF726BB314948464C
:1036000002F0CCF980460028E9D13B782F2B0ED16F
:10361000BB6863B11A784B2A0FD199682046FDF731
:103620005BFEFDF7A1FC8044FF68002FEDD1414611
:103630002046FDF7B2FCFFF707BB08F10108F3E7EE
:103640002821FDF772FC31462046DAF80820FFF702
:1036500077FA29212046FDF768FCC8E71A49484651
:1036600002F09CF930B93A4631462046FFF768FA35
:10367000FFF7EABA1549484602F090F90028B6D19A
:1036800020462821FDF751FC314620463A46FFF7F7
:1036900057FA29212046FDF748FCFFF7D5BA00BFAD
:1036A0002A8B020078400200308B0200378B020028
:1036B0003E8B0200418B02004A8B0200548B0200B9
:1036C000578B0200978902005A8B0200138E02006A
:1036D000EB681B78392B7FF4E4ABA9688868FDF7A9
:1036E0006DFDF0B10A462046314600F04DFC204603
:1036F0003C21FDF71AFCEB6831469A682046FFF73B
:103700001FFA2046BC49FDF73BFCEB6831462046DA
:10371000DA68FFF715FA29212046FDF706FCFFF7C6
:1037200093BA2A463146204600F05BFC00287FF41D
:103730008BAAAB681A78322A0BD19B689A68012A47
:1037400007D15B681B783E2B03D128212046FDF76B
:10375000ECFBAB68A9499B68186802F01FF9EB689D
:103760009A6850B91378032B07D1D3681B78292B9B
:103770001CBF0123C4F8183192683146204600F07E
:1037800012FCAF689E49BB68D3F80080404602F047
:1037900005F910BB5B212046FDF7C7FBEB683146FE
:1037A0002046DA68FFF7CCF95D212046FDF7BDFB26
:1037B000AB681A78322A7FF447AA9B689A68012A74
:1037C0007FF442AA5B681B783E2B7FF43DAA292137
:1037D0002046FDF7AAFBFFF737BA8849404602F0BA
:1037E000DDF820B13A463146204600F0CDFBEB68CB
:1037F0003146DA68204600F0D6FBD9E70123C0F84D
:103800001831FFF721BAEB681A783B2A7FF449ABED
:10381000DB681B783C2B7FF444AB2A46314600F032
:10382000E0FB00287FF410AAD5E902A3D3E90283C4
:10383000D3E90297DAF808307249186802F0AEF856
:10384000C8B942463146204600F0ADFB52463146EB
:10385000204600F099FB4A463146204600F0A3FB83
:1038600020466949FDF78CFB3A463146204600F078
:103870009AFBFFF7E9B965492046FDF781FBD8F8C7
:10388000083043B131462046424600F08CFB2021EF
:103890002046FDF74AFB4A4631462046FFF750F9DD
:1038A000002F3FF4D1A93A463146204600F07BFB79
:1038B000FFF7CAB9AA68117827297BD19268177CCB
:1038C000062F16D8BFB1EA681278A2B93E2B02D1F2
:1038D0002D21FDF72AFBEA6831462046023FFFF71B
:1038E0002FF9042F3FF6B0A9DFE807F02D33393F59
:1038F0004500072F45D028212046FDF716FBAA6872
:1039000031462046FFF71CF929212046FDF70DFB23
:103910002B783E2B03D12D212046FDF706FB082FE7
:1039200003D15B212046FDF700FBEA6831462046C3
:10393000FFF706F9082F7FF487A95D212046FDF7E0
:10394000F4FAFFF781B975212046FDF7EEFAFFF78B
:103950007BB96C212046FDF7E8FAFFF775B92C49D1
:103960002046FDF70DFBFFF76FB92A492046FDF70A
:1039700007FBFFF769B928492046FDF701FBFFF770
:1039800063B9EA6811780029B5D1D1680129B2D1AB
:103990003D2BB0D193681B78302B06D0312BAAD1A8
:1039A0001E49FDF7EDFAFFF74FB91D49FDF7E8FA9B
:1039B000FFF74AB900279EE7A968FDF7EEFAFFF77F
:1039C00043B91849FDF7DCFAAA6831462046FFF7EB
:1039D000B7F8FFF739B9AA683146FFF7B1F8EA68D6
:1039E00031462046FFF7ACF8FFF72EB9297AFDF7EC
:1039F0009CFAFFF729B900BF5D8B02008E89020097
:103A0000608B020094890200638B0200678B0200C6
:103A10006C8B0200708B02006F8B0200738B0200B4
:103A2000AA7C0200788B02007349FDF7A9FA31469F
:103A30002046AA68FFF784F829212046FDF775FA89
:103A4000FFF702B9A968FDF747FC50B93146204697
:103A5000AA6800F0A8FA69492046FDF791FAFFF735
:103A6000F3B8FDF781FADFF8B8B1D5F8089007464A
:103A700000F1FF3A47457FF7E7A8C4F824814A469A
:103A800031462046FFF75CF8D04503DA5946204618
:103A9000FDF776FA08F10108ECE7AE6826B9584957
:103AA000FDF76EFAFFF7D0B85649FDF769FA3146CF
:103AB0002046FDF772FA7D212046FDF736FAFFF722
:103AC000C3B85149FDF75CFAAA6831462046FFF7B2
:103AD00037F8FFF7B9B84D49FDF752FAAA683146F1
:103AE0002046FFF72DF8FFF7AFB84949FDF748FA30
:103AF000D4F82031AA680133C4F820313146204679
:103B0000FFF71EF8D4F820314249013BC4F82031B8
:103B10002046FDF735FAE96820460131FDF73DFA08
:103B20007D212046FDF701FAFFF78EB83A49FDF7EF
:103B300027FAA96820460131FDF72FFA7D2120469A
:103B4000FDF7F3F9FFF780B8AA683146FEF7F8FFF2
:103B500020463249FDF714FA31462046EA68FEF75E
:103B6000EFFF5D212046FDF7E0F9FFF76DB8022A6F
:103B700011D1FF683B78472B03D1BF68002F3FF47A
:103B8000F7A809EB08194FF0000B3878FDF7C0F8DB
:103B900000287FF408A93B78EA68042B04BF04AB33
:103BA000C4F810313146204604BF0597CDF810A067
:103BB000FEF7C6FF3B78042B04BF049BC4F810310A
:103BC00006AB03EB081757F8083C08F1FF384BB970
:103BD00020212046FDF7A9F957F80C2C3146204644
:103BE00000F020F8103FB8F1000FECD1019BC4F8B1
:103BF0001431FFF729B800BF878B0200628C0200E6
:103C0000928B0200978B02009E8B0200BC8B0200FD
:103C1000D98B0200E28B0200E58B0200F48B0200DC
:103C20003E8B020070B51378032B04460E461546F2
:103C30006ED0193BDAB2372A74D8372B72D8DFE846
:103C400003F01C22241C22244B503C434E53555756
:103C50007171717159716C71717171717171717171
:103C60007171717171717171717171717171717144
:103C70007171717171712671283A2C492046BDE825
:103C80007040FDF77DB92A49F8E72A49F6E72A4945
:103C9000F4E72A492046FDF773F9EB68002B43D07F
:103CA00028212046FDF741F9EA6831462046FEF713
:103CB00047FF29210BE02249ECE72021FDF735F9E8
:103CC000EA683146204624E04B072DD42A212046BD
:103CD000BDE87040FDF729B92021FDF726F926211E
:103CE000F5E72021FDF721F91649C7E71649C5E791
:103CF0001649C3E790F80431282B02D02021FDF7A4
:103D000014F93146AA682046FEF71AFF1049B5E7B4
:103D10009268BDE87040FEF713BF0E49FDF730F919
:103D2000AA68C2E72A46CCE770BD00BFFD8B02003F
:103D3000078C0200118C0200188C02002A8C0200F1
:103D4000348C02003B8C02003E8C0200478C020047
:103D5000528C0200568C02002DE9F84304460E46B0
:103D600090461F461D463DBB0023D4F81491C4F86D
:103D700014313A463146204600F049F81DB1292158
:103D80002046FDF7D2F828212046FDF7CEF8D8F8D6
:103D900000201AB131462046FEF7D2FE29212046E6
:103DA000FDF7C3F801233A463146204600F02FF8CC
:103DB000C4F81491BDE8F883AB6893B96B681B78BD
:103DC000193B122B0BD8DFE803F01414140A0A0A6B
:103DD0000A0A140E0E0E14140A0A0A0A14002D6898
:103DE000C1E70025C0E794F8043103F0FD03282B58
:103DF00007D094F80431202B03D020212046FDF772
:103E000094F828212046FDF790F80125ACE72DE92C
:103E1000F84304460E46154698464FF0010905B38F
:103E2000D4F81831EBB9AB6843B96A681178B8F1C6
:103E3000000F05D10846FCF76BFF08B12D68EEE7CF
:103E4000EB68D4F81071C5F808902929C4F810312E
:103E500009D12B680C3231462046FFF77DFFC4F8AC
:103E60001071BDE8F8832A2906D12B680832314643
:103E7000204600F045F8F2E7022934D10023D4F8B7
:103E800014819268C4F8143131462046FEF758FE7A
:103E90007307C4F8148121D416492046FDF770F841
:103EA0006B68DD682B78472B0DD113492046FDF751
:103EB00067F8E96820460131FDF76FF80F492046A1
:103EC000FDF75EF8AD682878FCF722FF0028F9D1ED
:103ED0002A4631462046FEF733FEC0E72E21204613
:103EE000FDF723F8DCE731462046FFF79BFEC4F8D8
:103EF0001071A3E7D9890200CA890200D88902009B
:103F00002DE9F3410F4690461E46B3B9202101909A
:103F1000FDF70BF8019801905B21FDF706F8D8F842
:103F2000002001981AB13946FEF70AFE01985D217A
:103F300002B0BDE8F041FCF7F8BF1C46A5685DB9CA
:103F400063681B782A2B1AD00E4901900124FDF7D3
:103F500017F82546019803E02468002CEED10125CE
:103F60000023324639460190FFF751FF01981CB1FA
:103F70002921FCF7DAFF0198002DC7D1CBE72C46A9
:103F8000EEE700BF8F8B020010B41478322C06D1FC
:103F900093685DF8044BD3E90112FCF7D8BF5DF8D4
:103FA000044BFEF7CDBDF8B51378012B04460F4640
:103FB000164613D9312B11D0062B0FD02821FCF730
:103FC000B4FF0025324639462046FEF7B9FD3DB91B
:103FD00020462921BDE8F840FCF7A7BF0125F1E7FD
:103FE000F8BD2DE9F84393689B681B680D46197866
:103FF000662904465CD1D268D0F82491D2E90276D1
:1040000032783C2A4FF0FF3208BFD6E90268C0F888
:1040100024215B7818BF4FF000086C2B1DD008D806
:104020004C2B2CD0522B2AD0C4F824910120BDE86F
:10403000F883722BF8D12821FCF777FF3246294606
:104040002046FFF7B0FF294620463A46FFF79CFF7F
:1040500018492046FCF794FFE6E71749FCF790FF64
:104060003A4629462046FFF78FFF3246294620462A
:10407000FFF799FF29212046FCF757FFD4E72821B5
:104080002046FCF752FF324629462046FFF78BFFB9
:104090003A4629462046FFF777FF08492046FCF7B5
:1040A0006FFF3A4629462046FFF76EFF4246DDE79E
:1040B0000020BCE7668C0200618C0200628C02006A
:1040C0002DE9F04FE5B090F800B0BBF15F0F00AF05
:1040D00005468946904602D143785A2B6FD09A49BB
:1040E000082228461FF0B1F900286BD12B7A2E2B1D
:1040F00003D05F2B01D0242B64D16B7A442B01D0E9
:10410000492B5FD1AA7A5F2A5CD1492B0CBF4FF0B3
:10411000020A4FF0030A284601F04AFC2B18FB6004
:104120001123C7E9043543000024B3F5006FC7E944
:104130000A40C7E90C44C7E90E44BD603B62FC611C
:104140003C6400F29F806E46A6EB4013800007306F
:104150009D4620F00700ADEB000DBAF1010FBB61E9
:10416000C7F824D000F09480AAF10203012B2CD8C8
:10417000EB7ABAF1020F05F10B010CBF4FF0440AC4
:104180004FF0450A5F2B796100F0D08008467960D6
:1041900001F00EFC7968024607F10800FCF718FEF2
:1041A00002460023514607F10800FCF7D0FD7D6967
:1041B0000446284601F0FCFB284478610AE04FF0F1
:1041C000010AA8E74FF0000AA5E707F10800FDF78C
:1041D000A1FB04467B691D78002D40F0B380002CC4
:1041E0004FD0214607F14400C7E95555C7E95A5554
:1041F000C7E95755C7E95C55C7E95E55C7E960553A
:10420000C7F8445187F84851C7F86451C7F8885136
:10421000C7E95398FCF71CFED7F86031D7F87C212A
:10422000B3F5006FD7F88831B8BFC7F86051012ADD
:1042300003FB02F36D46B8BF0122A5EBC202012BBE
:1042400095464FF00001C7F88831C7F88C11B8BF08
:1042500001236946A1EBC3039D46C7F874211121D0
:10426000224607F14400C7F880D1FEF769FC07F148
:104270004400AD46FCF748FED7F85C41B4FA84F43C
:104280006409B546204607F5CA77BD46BDE8F08FFC
:10429000BBF15F0F01D000249CE76B1C7B616B7846
:1042A0005A2BF8D10235514607F108007D61FEF71F
:1042B00049FA3B69DB0704468CD579690B782E2BCC
:1042C00088D14B78A3F16102192A07D95F2B05D059
:1042D000303B092B3FF67EAF0A4609E08B1C1A469D
:1042E00013F8010BA0F16105192DF8D95F28F6D05C
:1042F00013782E2B0ED07A6107F10800521AFCF7C2
:1043000067FD224603464E2107F10800FCF71FFD1A
:104310000446D2E75378303B092BECD8901C024678
:1043200001301378303B092BF9D9E1E72B7B5A2B6D
:104330007FF42CAF0D35214607F108007D61FEF7B3
:1043400001FA2DE700249CE76F8902002DE9FF4167
:104350000F4616461C4648B924B90025284604B025
:10436000BDE8F0816FF002032360F6E709B1002A8F
:10437000F2D000231E496A46CDE90033CDE902336D
:10438000FFF79EFE38B9009813F018FE002CE4D019
:104390006FF00103E8E7039B63B9DDF80880009D37
:1043A0005DB9002CD9D0B8F1010FF1D14FF0FF3336
:1043B0002360D3E74FF00108F1E71FB986B1C6F8D3
:1043C00000800DE0284601F0F3FA336898420BD2E2
:1043D000294638461FF031F8284613F0EFFD3D46D8
:1043E000002CBBD00023E3E7384613F0E7FDE6E7F7
:1043F0004B12000008B540B139B1FFF761FE00284B
:1044000014BF00206FF0010008BD6FF00200FBE751
:1044100070B54FF0FF0C4CF4E06C1CEA11541DBF5A
:104420001CEA135594EA0C0F95EA0C0F00F0DEF825
:104430002C4481EA030621EA4C5123EA4C5350EA0A
:10444000013518BF52EA033541F4801143F480135B
:1044500038D0A0FB02CE4FF00005E1FB02E506F0EC
:104460000042E0FB03E54FF00006E1FB03569CF041
:10447000000F18BF4EF0010EA4F1FF04B6F5007F47
:1044800064F5407404D25FEA4E0E6D4146EB0606B9
:1044900042EAC62141EA55514FEAC52040EA5E5042
:1044A0004FEACE2EB4F1FD0C88BFBCF5E06F1ED8EC
:1044B000BEF1004F08BF5FEA500E50F1000041EB23
:1044C000045170BD06F0004646EA010140EA0200D0
:1044D00081EA0301B4EB5C04C2BFD4EB0C0541EAF2
:1044E000045170BD41F480114FF0000E013C00F307
:1044F000AB8014F1360FDEBF002001F0004170BD2B
:10450000C4F10004203C35DA0C341BDC04F1140443
:10451000C4F1200500FA05F320FA04F001FA05F2CF
:1045200040EA020001F0004221F0004110EBD3709C
:1045300021FA04F642EB06015EEA430E08BF20EAC8
:10454000D37070BDC4F10C04C4F1200500FA04F36B
:1045500020FA05F001FA04F240EA020001F00041FD
:1045600010EBD37041F100015EEA430E08BF20EA70
:10457000D37070BDC4F1200500FA05F24EEA020EB8
:1045800020FA04F301FA05F243EA020321FA04F0E7
:1045900001F0004121FA04F220EA020000EBD3709E
:1045A0005EEA430E08BF20EAD37070BD94F0000F9E
:1045B0000FD101F00046400041EB010111F4801FD2
:1045C00008BF013CF7D041EA060195F0000F18BF83
:1045D000704703F00046520043EB030313F4801FBF
:1045E00008BF013DF7D043EA0603704794EA0C0F79
:1045F0000CEA135518BF95EA0C0F0CD050EA41068F
:1046000018BF52EA4306D1D181EA030101F000410B
:104610004FF0000070BD50EA410606BF1046194633
:1046200052EA430619D094EA0C0F02D150EA01363F
:1046300013D195EA0C0F05D152EA03361CBF104680
:1046400019460AD181EA030101F0004141F0FE411F
:1046500041F470014FF0000070BD41F0FE4141F4A3
:10466000780170BD70B54FF0FF0C4CF4E06C1CEAA3
:1046700011541DBF1CEA135594EA0C0F95EA0C0F58
:1046800000F0A7F8A4EB050481EA030E52EA033513
:104690004FEA013100F088804FEA03334FF0805534
:1046A00045EA131343EA12634FEA022245EA111561
:1046B00045EA10654FEA00260EF000419D4208BF12
:1046C000964244F1FD0404F5407402D25B084FEABF
:1046D0003202B61A65EB03055B084FEA32024FF46B
:1046E00080104FF4002CB6EB020E75EB030E22BFC8
:1046F000B61A754640EA0C005B084FEA3202B6EB88
:10470000020E75EB030E22BFB61A754640EA5C0036
:104710005B084FEA3202B6EB020E75EB030E22BFC6
:10472000B61A754640EA9C005B084FEA3202B6EBC7
:10473000020E75EB030E22BFB61A754640EADC0086
:1047400055EA060E18D04FEA051545EA16754FEAE8
:1047500006164FEAC30343EA52734FEAC2025FEA06
:104760001C1CC0D111F4801F0BD141EA00014FF095
:1047700000004FF0004CB6E711F4801F04BF014366
:104780000020B4F1FD0C88BFBCF5E06F3FF6AFAE82
:10479000B5EB030C04BFB6EB020C5FEA500C50F112
:1047A000000041EB045170BD0EF0004E4EEA113195
:1047B00014EB5C04C2BFD4EB0C0541EA045170BD9C
:1047C00041F480114FF0000E013C90E645EA060EE0
:1047D0008DE60CEA135594EA0C0F08BF95EA0C0F0E
:1047E0003FF43BAF94EA0C0F0AD150EA01347FF456
:1047F00034AF95EA0C0F7FF425AF104619462CE72D
:1048000095EA0C0F06D152EA03353FF4FDAE10468F
:10481000194622E750EA410618BF52EA43067FF4E0
:10482000C5AE50EA41047FF40DAF52EA43057FF470
:10483000EBAE12E74FF0FF3C06E000BF4FF0010C7B
:1048400002E000BF4FF0010C4DF804CD4FEA410CDF
:104850007FEA6C5C4FEA430C18BF7FEA6C5C1BD0AC
:1048600001B050EA410C0CBF52EA430C91EA030F2D
:1048700002BF90EA020F0020704710F1000F91EA8A
:10488000030F58BF994208BF90422CBFD8176FEA58
:10489000E37040F0010070474FEA410C7FEA6C5C26
:1048A00002D150EA013C07D14FEA430C7FEA6C5C2D
:1048B000D6D152EA033CD3D05DF8040B704700BF59
:1048C0008446104662468C461946634600E000BFA7
:1048D00001B5FFF7B7FF002848BF10F1000F01BD79
:1048E0004DF808EDFFF7F4FF0CBF012000205DF844
:1048F00008FB00BF4DF808EDFFF7EAFF34BF0120C9
:1049000000205DF808FB00BF4DF808EDFFF7E0FF61
:1049100094BF012000205DF808FB00BF4DF808EDB2
:10492000FFF7CEFF94BF012000205DF808FB00BF19
:104930004DF808EDFFF7C4FF34BF012000205DF8FB
:1049400008FB00BF4FEA410212F5001215D211D543
:104950006FF47873B3EB625212D94FEAC12343F07C
:10496000004343EA505311F0004F23FA02F018BFFE
:10497000404270474FF00000704750EA013005D1C7
:1049800011F0004008BF6FF0004070474FF000008A
:10499000704700BF4FEA4102B2F1E04324BFB3F5D4
:1049A000001CDCF1FE5C0DD901F0004C4FEAC002A6
:1049B0004CEA5070B2F1004F40EB830008BF20F08A
:1049C0000100704711F0804F21D113F13872BCBF44
:1049D00001F00040704741F480114FEA5252C2F199
:1049E0001802C2F1200C10FA0CF320FA02F018BFE2
:1049F00040F001004FEAC1234FEAD32303FA0CFC35
:104A000040EA0C0023FA02F34FEA4303CCE77FEAC3
:104A1000625307D150EA01331EBF4FF0FE4040F40D
:104A20004000704701F0004040F0FE4040F40000BC
:104A3000704700BF38B50022002304460D46FFF73B
:104A400059FF28B920462946BDE8384000F00AB889
:104A5000204605F1004100F005F8404261EB4101BC
:104A600038BD00BFD0B50C4B002206460F46FFF7FD
:104A7000CFFC00F073FF0446FBF7D4FC074B002289
:104A8000FFF7C6FC02460B4630463946FBF78CFB67
:104A900000F064FF2146D0BD0000F03D0000F04171
:104AA00003685A004CBF43F0004323F0004318440E
:104AB000704700BF2DE9F84329B34F1E0446154641
:104AC0003E464FF0000808EB060101EBD17149109A
:104AD00004EBC1094846FFF7E3FF0346C80008306E
:104AE0008F42204409D0AB4209D8FFF7D9FF0138E3
:104AF000A8420AD201F10108E5E7AB4205D9884591
:104B000001D04E1EDFE74FF000094846BDE8F883AC
:104B1000012807D0022807D0044B00280CBF1846F4
:104B2000002070470248704702487047ED5100006E
:104B3000F1510000F551000030B5234B83B004461D
:104B40008D1E3BB301A9284600E000BFE8B10199E2
:104B50002A46FFF7AFFF0146B8B1FFF7A1FF4B6848
:104B6000A064012B2BD0002B01F1040023DBFFF705
:104B700097FF0023C4E913030368002B10DBFFF742
:104B80008FFF2061002003B030BD00230920236186
:104B900003B030BD0D490E48091AC9100191D7E77D
:104BA000C3F30360FFF7B4FF0028206114BF0020A7
:104BB000092003B030BD0123C4E91303DCE700235F
:104BC00023610520DFE700BF000000002839020054
:104BD000783702000368DA0710B5044606D49B074D
:104BE00000F1480009D500F057FC2368590709D5A2
:104BF0001A070ED5DB0613D510BD00F045FC23685F
:104C00005907F5D404F1D00000F04EFC23681A07D0
:104C1000F0D404F5A87000F04FFC2368DB06EBD459
:104C200004F5E870BDE8104000F08ABC0346006857
:104C300000B11844704700BF09207047704700BF9B
:104C400070B504460E46316C2046FFF775FF0546E9
:104C500088B9336C63613246236921460120984745
:104C60000828F0D0072806D12846316CFFF7E6FF68
:104C7000301D00F0FDFB1EF0B5FA00BF2DE9F04736
:104C80000D1D064614460FCDADF5727D0DF10C0CD1
:104C9000ACE80F000FCDACE80F000FCDACE80F0073
:104CA00095E80F0002ADF768D6F818808CE80F0081
:104CB00000232B6021E02B6C73614FF4F0722946C6
:104CC0007AA81EF0A4FA33697AAA3146504698476A
:104CD000889BCDE9005821466B64814633463246B5
:104CE0000120B8470446E8B94FF4F0727AA9284683
:104CF0001EF08DFAB9F1080F1BD1296C3046FFF771
:104D00001BFF09345FFA84FA81460028D3D0AB6BCD
:104D10004AF01001CDE9005832466B640120334659
:104D2000B84708B14FF0090948460DF5727DBDE856
:104D3000F087B9F1070FF5D12046296CFFF77EFF08
:104D400003A800F095FB00BF406C7047F0B5CB6B3B
:104D50000B640E1D0F4605460FCEF9B001AC0FC413
:104D60000FCE0FC40FCE0FC496E80F004FF0FF36E2
:104D700084E80F00009606E02B696A4629469847AA
:104D80000828044608D110992846FFF7D5FE0028C8
:104D9000F2D0092079B0F0BD6846FFF71BFF062C62
:104DA000F7D139462846FFF74BFF00BF30B4DD6B23
:104DB000C160826119461D64002230BC5EE700BFFD
:104DC00070B5C66843690B64AEB903690A46044608
:104DD0000D46014602209847072805D008280FD124
:104DE00029462046FFF72CFF3046296CFFF726FFA7
:104DF000281D00F03DFB0122FFF740FF1EF0F2F9F5
:104E00001EF0F0F9C2681AB1CA6B0A64002235E7D5
:104E10009CE700BF704700BF836801460BB10120CB
:104E200018477047012912D009D873B90F2A0CD836
:104E300000EB820218465368009A136070470339EA
:104E4000012994BF012002207047022070470846C4
:104E5000704700BF10B584B0002303AC0A4600942D
:104E60001946FFF7DFFF039804B010BD012912D0E7
:104E700009D873B90F2A0CD800EB8200009A126887
:104E80004260184670470339012994BF012002206F
:104E90007047022070470846704700BF10B584B0C5
:104EA000002303AC039200940A461946FFF7DEFF85
:104EB00004B010BDF0B5D36B1364151D8C460646C7
:104EC0000FCDADF50F7D17AC0FC40FCD0FC40FCDB7
:104ED0000FC495E80F004FF0FF3784E80F006546D8
:104EE000169710E0FFF7DAFF294616A8B0470346E9
:104EF00016AA6946082083B9049B984705280446EA
:104F00000CD0092809D026996846FFF715FE0346FC
:104F10006A460C2116A8002BE4D0092416A8FFF736
:104F200059FE20460DF50F7DF0BD00BF2DE9F04F75
:104F3000CC6C89B00D4654F8041B0694174600F05B
:104F400003081E46002B79D00B0CDAB209048DF849
:104F50001D30022304EB820405918DF81C302B6D6B
:104F6000B8F1020F08BFAC6B13F001030CD0384648
:104F700005A900F07FFB18B9082009B0BDE8F08F43
:104F8000092009B0BDE8F08FD4F800A0BAF1000FF5
:104F9000EDD0019300F008030293022E4AD0B4F83A
:104FA00000A0B4F802900434AA6C29F0010B0F2180
:104FB00038469344FFF74EFF834539D82AF0010263
:104FC0005A44824294BF002001204FEA490303F073
:104FD00002030AF0010A43EA0A03012B49D0022B1B
:104FE00032D0002BCCD1B8F1000F02D0002840F015
:104FF000CC800434D4F800A0BAF1000FCDD105A9BB
:10500000384600F037FB0028BAD1019B002BB3D003
:105010000F213846FFF71EFF0E2102463846FFF7E4
:105020003DFF3846704A0F21FFF738FF0720A8E7F9
:105030000020CAE7D4F804900834B5E70902032336
:105040000591ADF81C308AE7236823F0004BB8F1D6
:10505000000F45D128B1029A002A5BD0BBF1000FA6
:1050600073D0002B00DA04340BF1010B04EB8B043A
:10507000C0E7B8F1000F19D1B0B1D4E90023991CF1
:105080004FEAD2723FF47CAF05F15801013304912D
:1050900000F08F80201DFFF7C9FD04AB01462846B4
:1050A0000FF054FE00285AD10834A3E70D213846EA
:1050B000D5F82090FFF7CEFE8145F5D1AB6A9C4232
:1050C000F2D12046FFF7ECFC0F2102463846FFF7ED
:1050D000E5FE38462A460021FFF7E0FE072050E7AC
:1050E0000D213846D5F82090FFF7B4FE814501D058
:1050F0002368B6E7AB6A9C42FAD104210023621808
:10510000C5E90AB3C5E90C1222689A4259DB0123AA
:105110000193A9E705F15803CDF80C8004F1040AC6
:10512000B04691461E460DE00496FFF77FFD04ABA6
:105130000146002228460FF009FE09F101090AF193
:10514000040AE8B9D9455046EED138460D21FFF79B
:1051500081FE049B2862C5E90934062011E78146D7
:105160000D213846FFF776FEB9F1020F286225D1EE
:105170002B46049A43F82C2F6B62AC62062000E7A2
:1051800046462368DDF80C806BE72046FFF788FC75
:1051900004340246AC63284614461DF0F5FD002891
:1051A0003FF4EEAE384622460F21FFF777FE072088
:1051B000E7E638460D21FFF74DFE2862049B6B623F
:1051C000DBE70BF1010004EB8000FFF769FC0F2126
:1051D00002463846FFF762FE002338462A46194643
:1051E000FFF75CFE0720CCE6094E010000239DE698
:1051F00001239BE6022399E62DE9F0430646C3B05E
:1052000015461C46042900F2B980DFE801F09A53E4
:10521000B7290300002C40F0B180102A00F2AE80C4
:105220000368D80600F1F38020AF384600F092F909
:10523000B06B0023012404FA03F22A42014604D091
:1052400051F8042B47F8232008460133042BF2D1F0
:10525000B063384600F074F9002043B0BDE8F08335
:10526000032C40F08B8094B204EB1243102B4FEAD6
:10527000124500F2838003681F0700F1D08020AF41
:10528000384600F03BF907EBC501B56B54B10B464E
:10529000E81A01EBC401E4001A5843F8042B8B42CE
:1052A000FAD125443846B56300F006F9002043B032
:1052B000BDE8F083012C4FEA124895B25AD0052C74
:1052C0005CD108EB0509B9F1200F57D8B8F10F0FE1
:1052D00077D9A946002D40F08880B36B6DB320AF1D
:1052E0004FF0000907EBC807043F03EBC50553F86F
:1052F000041B47F8041FAB42F9D1B9F1000F0FD0DE
:105300006F464146102938BF102107EBC10184398F
:1053100003EBC90553F8040B41F8040FAB42F9D174
:10532000012C00F08480B8F10F0FB56345D9B9F1B5
:10533000000F02D0684600F0B7F8002043B0BDE887
:10534000F083DCB9876B2346012094B206F1040C8C
:1053500000FA03F22242394604D051F8042B4CF8EB
:1053600023200F460133102BF2D115F40050E4D165
:10537000B76304E008EB0503102B03D9022043B008
:10538000BDE8F083B8F10F0FF8D83368DA0706D517
:10539000304623F0030340F8483B00F079F820AF93
:1053A000384600F075F8B36B002D99D11D460435D1
:1053B000B563384600F068F8BFE720A800F06CF845
:1053C000B5E7B9F1100F40D9A9F110093368D90731
:1053D00008D523F00103304643F0020340F8483B70
:1053E00000F05EF8B9F1000F32D033685A0720D4CC
:1053F000B8F10F0F25D96F463846C8F1100500F0F7
:1054000057F8002DB36B7FF77CAF20AF6AE723F02E
:105410001003336006F5E87000F09CF804E723F011
:105420000803036000F5A87000F068F827E720AFD4
:10543000BDE7304623F0040340F8D03B00F038F8D5
:10544000D6E720A800F02CF8D5E74FF00009BDE71B
:10545000B8F10F0F3FF641AF20AF384600F020F80B
:10546000B36B002D7FF43CAF384600F015F864E7CD
:1054700000F1340191E838009C46A6464CF8045DE2
:1054800090E8FF0FE54600BD90EC210B704700BF90
:1054900080EC210B704700BF90EC200B704700BFE1
:1054A00080EC200B704700BFD0EC200B704700BF92
:1054B000C0EC200B704700BFF0EC0201F0EC0211D1
:1054C000F0EC0221F0EC0231F0EC0241F0EC025180
:1054D000F0EC0261F0EC0271F0EC0281F0EC029170
:1054E000F0EC02A1F0EC02B1F0EC02C1F0EC02D160
:1054F000F0EC02E1F0EC02F1704700BFE0EC0201D9
:10550000E0EC0211E0EC0221E0EC0231E0EC0241BF
:10551000E0EC0251E0EC0261E0EC0271E0EC0281AF
:10552000E0EC0291E0EC02A1E0EC02B1E0EC02C19F
:10553000E0EC02D1E0EC02E1E0EC02F1704700BFE8
:10554000B0FC0181B0FC0191B0FC01A1B0FC01B143
:10555000704700BFA0FC0181A0FC0191A0FC01A14B
:10556000A0FC01B1704700BFEC4600B52DE900502A
:105570002DE9FF1F4FF000032DE90C0001A9FFF7F3
:10558000E5FBDDF840E012B0704700BFEC4600B527
:105590002DE900502DE9FF1F4FF000032DE90C000D
:1055A00001A9FFF70DFCDDF840E012B0704700BF25
:1055B000EC4600B52DE900502DE9FF1F4FF0000328
:1055C0002DE90C0001A9FFF71DFCDDF840E012B049
:1055D000704700BFEC4600B52DE900502DE9FF1FD4
:1055E0004FF000032DE90C0001ABFFF7DFFBDDF806
:1055F00040E012B0704700BFEC4600B52DE9005006
:105600002DE9FF1F4FF000032DE90C0001AAFFF761
:1056100051FCDDF840E012B0704700BF027A7AB961
:10562000437AA3B14268013B10B44372136803216B
:10563000141D01721A024460026010BC180E7047FB
:105640000368013A02721A020260180E7047B02015
:10565000704700BF00B585B003AA00230092194629
:105660000C22FFF7DFFB039805B05DF804FB00BFD9
:10567000F0E700BF2DE9F043054685B00E464FF038
:1056800000083046FFF7CAFFB028044600F0B28099
:10569000070620D500F0F003802B4DD0902B36D09C
:1056A000A02B60D0B02B74D0C02B00F08B8000F00A
:1056B000F803D02B0BD100F00702013242F4002294
:1056C000052301212846FFF797FD0028D9D009209E
:1056D00005B0BDE8F0830DF10C09002319468700E1
:1056E000CDF800900D222846FFF79CFBFFB2039BEC
:1056F000CDF80090043760064CBFDF1BFF18002375
:1057000019460D2228460397FFF7B0FBB9E700F0D2
:105710000D030D2BDBD003AF002300F00F02194661
:1057200000972846FFF77EFB0023009719460D22BD
:105730002846FFF79BFBA4E73046FFF76FFF2402E4
:105740002043B0F5004FC2D004010023A2B2194695
:105750002846FFF751FD0028B9D114F4004F18BFB7
:105760004FF001088DE7C24302F007034FF47F6258
:105770001A41010702F47F624FF0000348BF42F470
:10578000804219462846FFF737FD00283FF479AFDD
:105790009DE7B12833D0B22800F08B80B32839D0F0
:1057A00000F0FC03B42B92D000F007020132012379
:1057B00042F4002219462846FFF71EFD00283FF458
:1057C00060AF84E7C62842D0C7284CD000F0F80369
:1057D000C02B5BD0C82860D0C9287FF478AF304692
:1057E000FFF71CFF020300F00F0002F470220130EB
:1057F000024365E7B8F1000F18D0002068E7304693
:10580000FFF70CFF024600283FF461AF10F0F003F1
:10581000D0D05CE73046FFF701FF010300F00F0036
:1058200001F47021421C01230A43C3E703AC434641
:105830000E22414600942846FFF7F4FA00942846C9
:1058400043460F224146FFF711FB404640E73046F2
:10585000FFF7E4FE010300F00F0001F47021421C89
:1058600003230A43A6E73046FFF7D8FE0246002886
:105870003FF42DAF10F0F0037FF429AF0421284648
:10588000FFF7BAFC00283FF4FCAE20E700F00F025F
:105890000132032342F420228CE73046FFF7BEFE9C
:1058A00000F0F00200F00F031032013343EA02323D
:1058B00006E700230DF10C090D221946CDF80090E2
:1058C0002846FFF7AFFA3046FFF7A8FE02064FF072
:1058D00002070CD5039B00F07F00B840034430461C
:1058E0000393FFF79BFE030607F10707F2D4039B20
:1058F000CDF8009000F07F0403F50172BC40002356
:10590000144419460D2228460394FFF7AFFAB8E66F
:1059100010B5C26C84B0536803248DF80C401B0290
:1059200002F108040846D279019301A902948DF886
:105930000D20FFF79FFE04B010BD00BF08B5FFF7B4
:1059400097FE806C08BD00BF08B5FFF791FEC06CE4
:10595000C379023300EB830008BD00BF4A0011D2B7
:1059600012F5001211D20DD56FF47873B3EB6252B9
:105970000ED44FEAC12343F0004343EA505323FAC5
:1059800002F070474FF00000704750EA013002D13A
:105990004FF0FF3070474FF00000704710F8012BB8
:1059A00011F8013B012A28BF9A42F7D0D01A70475C
:1059B000034613F8012B002AFBD1181A013870474F
:1059C0002DE9F7430646DDE90B894FF000400F460D
:1059D0000A99CDE90023C840FAF734FDDDE9002338
:1059E00004460D4630463946FEF712FD02460B4688
:1059F00020462946FEF70CFD09A3D3E900230446FF
:105A00000D46FEF795FF10B105A5D5E900454B46BB
:105A100042462046294603B0BDE8F0430DF052BF90
:105A20000000C0FFFFFFDF412DE9F74F0446DDE92D
:105A30000C7BC86815461E468A46FAF715FD804657
:105A4000E8688946FAF710FD02460B46404649468B
:105A5000FEF7DEFC80468946D6B1F068FAF704FD11
:105A600002460B4640464946FAF79EFB8046F868D8
:105A700021F00049FAF7F8FC02460B464046494639
:105A8000FEF7F0FD11A3D3E90023FEF73DFF50B16F
:105A90003B462A4651462046CDF830B003B0BDE81B
:105AA000F04F0DF049BF064B2046009365699A23DD
:105AB000044A0549A847012003B0BDE8F08F00BFA4
:105AC000887C0200487C0200296602007B14AE47F5
:105AD000E17A943F0000000080B58CB000AFC7E9C8
